{
  "contractName": "OperatorDoubleSig",
  "abi": [
    {
      "inputs": [
        {
          "internalType": "address[]",
          "name": "allowedSigners",
          "type": "address[]"
        },
        {
          "internalType": "uint256",
          "name": "txDailyLimit_",
          "type": "uint256"
        }
      ],
      "stateMutability": "nonpayable",
      "type": "constructor"
    },
    {
      "anonymous": false,
      "inputs": [
        {
          "indexed": false,
          "internalType": "uint256",
          "name": "origin",
          "type": "uint256"
        },
        {
          "indexed": false,
          "internalType": "uint256",
          "name": "current",
          "type": "uint256"
        }
      ],
      "name": "BundleMaximumChange",
      "type": "event"
    },
    {
      "anonymous": false,
      "inputs": [
        {
          "indexed": false,
          "internalType": "uint256",
          "name": "origin",
          "type": "uint256"
        },
        {
          "indexed": false,
          "internalType": "uint256",
          "name": "current",
          "type": "uint256"
        }
      ],
      "name": "DailyLimitChange",
      "type": "event"
    },
    {
      "anonymous": false,
      "inputs": [
        {
          "indexed": true,
          "internalType": "address",
          "name": "previousOwner",
          "type": "address"
        },
        {
          "indexed": true,
          "internalType": "address",
          "name": "newOwner",
          "type": "address"
        }
      ],
      "name": "OwnershipTransferred",
      "type": "event"
    },
    {
      "anonymous": false,
      "inputs": [
        {
          "indexed": false,
          "internalType": "address",
          "name": "msgSender",
          "type": "address"
        }
      ],
      "name": "SafeModeActivated",
      "type": "event"
    },
    {
      "anonymous": false,
      "inputs": [
        {
          "indexed": false,
          "internalType": "address",
          "name": "msgSender",
          "type": "address"
        }
      ],
      "name": "SafeModeDeactivated",
      "type": "event"
    },
    {
      "anonymous": false,
      "inputs": [
        {
          "indexed": false,
          "internalType": "address",
          "name": "msgSender",
          "type": "address"
        },
        {
          "indexed": false,
          "internalType": "address[2]",
          "name": "signers",
          "type": "address[2]"
        },
        {
          "indexed": false,
          "internalType": "bytes32",
          "name": "operation",
          "type": "bytes32"
        },
        {
          "indexed": false,
          "internalType": "address",
          "name": "toAddress",
          "type": "address"
        },
        {
          "indexed": false,
          "internalType": "uint256",
          "name": "value",
          "type": "uint256"
        },
        {
          "indexed": false,
          "internalType": "bytes",
          "name": "data",
          "type": "bytes"
        }
      ],
      "name": "Transacted",
      "type": "event"
    },
    {
      "inputs": [],
      "name": "BUNDLE_MAXIMUM",
      "outputs": [
        {
          "internalType": "uint256",
          "name": "",
          "type": "uint256"
        }
      ],
      "stateMutability": "view",
      "type": "function",
      "constant": true
    },
    {
      "inputs": [],
      "name": "owner",
      "outputs": [
        {
          "internalType": "address",
          "name": "",
          "type": "address"
        }
      ],
      "stateMutability": "view",
      "type": "function",
      "constant": true
    },
    {
      "inputs": [],
      "name": "renounceOwnership",
      "outputs": [],
      "stateMutability": "nonpayable",
      "type": "function"
    },
    {
      "inputs": [],
      "name": "safeMode",
      "outputs": [
        {
          "internalType": "bool",
          "name": "",
          "type": "bool"
        }
      ],
      "stateMutability": "view",
      "type": "function",
      "constant": true
    },
    {
      "inputs": [
        {
          "internalType": "uint256",
          "name": "",
          "type": "uint256"
        }
      ],
      "name": "signers",
      "outputs": [
        {
          "internalType": "address",
          "name": "",
          "type": "address"
        }
      ],
      "stateMutability": "view",
      "type": "function",
      "constant": true
    },
    {
      "inputs": [
        {
          "internalType": "address",
          "name": "newOwner",
          "type": "address"
        }
      ],
      "name": "transferOwnership",
      "outputs": [],
      "stateMutability": "nonpayable",
      "type": "function"
    },
    {
      "inputs": [],
      "name": "txDailyLimit",
      "outputs": [
        {
          "internalType": "uint256",
          "name": "",
          "type": "uint256"
        }
      ],
      "stateMutability": "view",
      "type": "function",
      "constant": true
    },
    {
      "stateMutability": "payable",
      "type": "receive",
      "payable": true
    },
    {
      "inputs": [
        {
          "internalType": "uint256",
          "name": "limit_",
          "type": "uint256"
        }
      ],
      "name": "changeDailyLimit",
      "outputs": [
        {
          "internalType": "uint256",
          "name": "",
          "type": "uint256"
        }
      ],
      "stateMutability": "nonpayable",
      "type": "function"
    },
    {
      "inputs": [
        {
          "internalType": "uint256",
          "name": "maximum_",
          "type": "uint256"
        }
      ],
      "name": "changeBundleMaximum",
      "outputs": [
        {
          "internalType": "uint256",
          "name": "",
          "type": "uint256"
        }
      ],
      "stateMutability": "nonpayable",
      "type": "function"
    },
    {
      "inputs": [
        {
          "internalType": "address",
          "name": "signer",
          "type": "address"
        }
      ],
      "name": "isSigner",
      "outputs": [
        {
          "internalType": "bool",
          "name": "",
          "type": "bool"
        }
      ],
      "stateMutability": "view",
      "type": "function",
      "constant": true
    },
    {
      "inputs": [],
      "name": "getSigners",
      "outputs": [
        {
          "internalType": "address[]",
          "name": "",
          "type": "address[]"
        }
      ],
      "stateMutability": "view",
      "type": "function",
      "constant": true
    },
    {
      "inputs": [
        {
          "internalType": "address",
          "name": "toAddress",
          "type": "address"
        },
        {
          "internalType": "uint256",
          "name": "value",
          "type": "uint256"
        },
        {
          "internalType": "bytes",
          "name": "data",
          "type": "bytes"
        },
        {
          "internalType": "uint256",
          "name": "expireTime",
          "type": "uint256"
        },
        {
          "internalType": "uint256",
          "name": "salt",
          "type": "uint256"
        },
        {
          "internalType": "bytes",
          "name": "signature1",
          "type": "bytes"
        },
        {
          "internalType": "bytes",
          "name": "signature2",
          "type": "bytes"
        }
      ],
      "name": "sendMultiSig",
      "outputs": [],
      "stateMutability": "nonpayable",
      "type": "function"
    },
    {
      "inputs": [
        {
          "internalType": "address[]",
          "name": "toAddresses",
          "type": "address[]"
        },
        {
          "internalType": "uint256[]",
          "name": "values",
          "type": "uint256[]"
        },
        {
          "internalType": "bytes[]",
          "name": "datas",
          "type": "bytes[]"
        },
        {
          "internalType": "uint256",
          "name": "expireTime",
          "type": "uint256"
        },
        {
          "internalType": "uint256[]",
          "name": "salts",
          "type": "uint256[]"
        },
        {
          "internalType": "bytes",
          "name": "signature1",
          "type": "bytes"
        },
        {
          "internalType": "bytes",
          "name": "signature2",
          "type": "bytes"
        }
      ],
      "name": "sendMultiSigBundle",
      "outputs": [],
      "stateMutability": "nonpayable",
      "type": "function"
    },
    {
      "inputs": [],
      "name": "calcMaxWithdraw",
      "outputs": [
        {
          "internalType": "uint256",
          "name": "",
          "type": "uint256"
        }
      ],
      "stateMutability": "view",
      "type": "function",
      "constant": true
    },
    {
      "inputs": [],
      "name": "activateSafeMode",
      "outputs": [],
      "stateMutability": "nonpayable",
      "type": "function"
    },
    {
      "inputs": [],
      "name": "deactivateSafeMode",
      "outputs": [],
      "stateMutability": "nonpayable",
      "type": "function"
    }
  ],
  "bytecode": "0x608060405261012c6001556000600360006101000a81548160ff0219169083151502179055503480156200003257600080fd5b5060405162003988380380620039888339818101604052810190620000589190620002f9565b620000786200006c620000af60201b60201c565b620000b760201b60201c565b60038251146200008757600080fd5b81600290805190602001906200009f9291906200017b565b5080600581905550505062000493565b600033905090565b60008060009054906101000a900473ffffffffffffffffffffffffffffffffffffffff169050816000806101000a81548173ffffffffffffffffffffffffffffffffffffffff021916908373ffffffffffffffffffffffffffffffffffffffff1602179055508173ffffffffffffffffffffffffffffffffffffffff168173ffffffffffffffffffffffffffffffffffffffff167f8be0079c531659141344cd1fd0a4f28419497f9722a3daafe3b4186f6b6457e060405160405180910390a35050565b828054828255906000526020600020908101928215620001f7579160200282015b82811115620001f65782518260006101000a81548173ffffffffffffffffffffffffffffffffffffffff021916908373ffffffffffffffffffffffffffffffffffffffff160217905550916020019190600101906200019c565b5b5090506200020691906200020a565b5090565b5b80821115620002255760008160009055506001016200020b565b5090565b6000620002406200023a846200037c565b62000353565b905080838252602082019050828560208602820111156200026057600080fd5b60005b858110156200029457816200027988826200029e565b84526020840193506020830192505060018101905062000263565b5050509392505050565b600081519050620002af816200045f565b92915050565b600082601f830112620002c757600080fd5b8151620002d984826020860162000229565b91505092915050565b600081519050620002f38162000479565b92915050565b600080604083850312156200030d57600080fd5b600083015167ffffffffffffffff8111156200032857600080fd5b6200033685828601620002b5565b92505060206200034985828601620002e2565b9150509250929050565b60006200035f62000372565b90506200036d8282620003e9565b919050565b6000604051905090565b600067ffffffffffffffff8211156200039a57620003996200041f565b5b602082029050602081019050919050565b6000620003b882620003bf565b9050919050565b600073ffffffffffffffffffffffffffffffffffffffff82169050919050565b6000819050919050565b620003f4826200044e565b810181811067ffffffffffffffff821117156200041657620004156200041f565b5b80604052505050565b7f4e487b7100000000000000000000000000000000000000000000000000000000600052604160045260246000fd5b6000601f19601f8301169050919050565b6200046a81620003ab565b81146200047657600080fd5b50565b6200048481620003df565b81146200049057600080fd5b50565b6134e580620004a36000396000f3fe6080604052600436106100f75760003560e01c80638da5cb5b1161008a578063cea0862111610059578063cea0862114610357578063f2fde38b14610394578063f4ea099d146103bd578063fc0f392d146103e657610142565b80638da5cb5b146102ab57806394cf795e146102d6578063abe3219c14610301578063ca8e99831461032c57610142565b80635c9def8d116100c65780635c9def8d1461020357806360c3908e14610240578063715018a6146102575780637df73e271461026e57610142565b806304cdf566146101475780632079fb9a1461017057806346acc627146101ad5780634bc9fdc2146101d857610142565b36610142576000341115610140576040517f08c379a000000000000000000000000000000000000000000000000000000000815260040161013790612bb8565b60405180910390fd5b005b600080fd5b34801561015357600080fd5b5061016e60048036038101906101699190612260565b6103fd565b005b34801561017c57600080fd5b506101976004803603810190610192919061238e565b610f18565b6040516101a49190612a31565b60405180910390f35b3480156101b957600080fd5b506101c2610f57565b6040516101cf9190612cd8565b60405180910390f35b3480156101e457600080fd5b506101ed610f5d565b6040516101fa9190612cd8565b60405180910390f35b34801561020f57600080fd5b5061022a6004803603810190610225919061238e565b610f97565b6040516102379190612cd8565b60405180910390f35b34801561024c57600080fd5b50610255611069565b005b34801561026357600080fd5b5061026c611139565b005b34801561027a57600080fd5b5061029560048036038101906102909190612151565b6111c1565b6040516102a29190612ad6565b60405180910390f35b3480156102b757600080fd5b506102c0611296565b6040516102cd9190612a31565b60405180910390f35b3480156102e257600080fd5b506102eb6112bf565b6040516102f89190612ab4565b60405180910390f35b34801561030d57600080fd5b5061031661134d565b6040516103239190612ad6565b60405180910390f35b34801561033857600080fd5b50610341611360565b60405161034e9190612cd8565b60405180910390f35b34801561036357600080fd5b5061037e6004803603810190610379919061238e565b611366565b60405161038b9190612cd8565b60405180910390f35b3480156103a057600080fd5b506103bb60048036038101906103b69190612151565b611438565b005b3480156103c957600080fd5b506103e460048036038101906103df919061217a565b611530565b005b3480156103f257600080fd5b506103fb611990565b005b6201518060065461040e9190612eaa565b421115610425574260068190555060006007819055505b61043b6001600754611a6090919063ffffffff16565b6007819055506005546007541115610488576040517f08c379a000000000000000000000000000000000000000000000000000000000815260040161047f90612c18565b60405180910390fd5b600360009054906101000a900460ff16156104d8576040517f08c379a00000000000000000000000000000000000000000000000000000000081526004016104cf90612cb8565b60405180910390fd5b6001548751111580156104ee5750600154865111155b80156104fd5750600154855111155b801561050c5750600154835111155b61054b576040517f08c379a000000000000000000000000000000000000000000000000000000000815260040161054290612bd8565b60405180910390fd5b8451875114801561055d575085518751145b801561056a575082518751145b61057357600080fd5b4284116105b5576040517f08c379a00000000000000000000000000000000000000000000000000000000081526004016105ac90612c78565b60405180910390fd5b6105bd611eea565b600060608060608060005b8b5181101561077457848c828151811061060b577f4e487b7100000000000000000000000000000000000000000000000000000000600052603260045260246000fd5b6020026020010151604051602001610624929190612877565b6040516020818303038152906040529450828d828151811061066f577f4e487b7100000000000000000000000000000000000000000000000000000000600052603260045260246000fd5b602002602001015160405160200161068892919061289b565b6040516020818303038152906040529250838e82815181106106d3577f4e487b7100000000000000000000000000000000000000000000000000000000600052603260045260246000fd5b60200260200101516040516020016106ec929190612827565b6040516020818303038152906040529350818a8281518110610737577f4e487b7100000000000000000000000000000000000000000000000000000000600052603260045260246000fd5b602002602001015160405160200161075092919061289b565b6040516020818303038152906040529150808061076c9061306e565b9150506105c8565b5060006040518060800160405280858051906020012081526020018480519060200120815260200186805190602001208152602001838051906020012081525090503046826000600481106107f2577f4e487b7100000000000000000000000000000000000000000000000000000000600052603260045260246000fd5b602002015183600160048110610831577f4e487b7100000000000000000000000000000000000000000000000000000000600052603260045260246000fd5b602002015184600260048110610870577f4e487b7100000000000000000000000000000000000000000000000000000000600052603260045260246000fd5b60200201518f866003600481106108b0577f4e487b7100000000000000000000000000000000000000000000000000000000600052603260045260246000fd5b60200201516040516020016108cb979695949392919061294b565b60405160208183030381529060405280519060200120955050505050506108f28185611a76565b8260006002811061092c577f4e487b7100000000000000000000000000000000000000000000000000000000600052603260045260246000fd5b602002019073ffffffffffffffffffffffffffffffffffffffff16908173ffffffffffffffffffffffffffffffffffffffff168152505061096d8184611a76565b826001600281106109a7577f4e487b7100000000000000000000000000000000000000000000000000000000600052603260045260246000fd5b602002019073ffffffffffffffffffffffffffffffffffffffff16908173ffffffffffffffffffffffffffffffffffffffff168152505081600160028110610a18577f4e487b7100000000000000000000000000000000000000000000000000000000600052603260045260246000fd5b602002015173ffffffffffffffffffffffffffffffffffffffff1682600060028110610a6d577f4e487b7100000000000000000000000000000000000000000000000000000000600052603260045260246000fd5b602002015173ffffffffffffffffffffffffffffffffffffffff161415610ac9576040517f08c379a0000000000000000000000000000000000000000000000000000000008152600401610ac090612b98565b60405180910390fd5b60005b8751811015610f0c57600030468c8481518110610b12577f4e487b7100000000000000000000000000000000000000000000000000000000600052603260045260246000fd5b60200260200101518c8581518110610b53577f4e487b7100000000000000000000000000000000000000000000000000000000600052603260045260246000fd5b60200260200101518c8681518110610b94577f4e487b7100000000000000000000000000000000000000000000000000000000600052603260045260246000fd5b60200260200101518c8c8881518110610bd6577f4e487b7100000000000000000000000000000000000000000000000000000000600052603260045260246000fd5b6020026020010151604051602001610bf497969594939291906128c3565b6040516020818303038152906040528051906020012090506004600082815260200190815260200160002060009054906101000a900460ff1615610c3783611b10565b604051602001610c479190612a04565b60405160208183030381529060405290610c97576040517f08c379a0000000000000000000000000000000000000000000000000000000008152600401610c8e9190612b36565b60405180910390fd5b5060016004600083815260200190815260200160002060006101000a81548160ff021916908315150217905550610d8f8b8381518110610d00577f4e487b7100000000000000000000000000000000000000000000000000000000600052603260045260246000fd5b60200260200101518b8481518110610d41577f4e487b7100000000000000000000000000000000000000000000000000000000600052603260045260246000fd5b60200260200101518b8581518110610d82577f4e487b7100000000000000000000000000000000000000000000000000000000600052603260045260246000fd5b6020026020010151611cbd565b610df757610d9c82611b10565b604051602001610dac91906129d7565b6040516020818303038152906040526040517f08c379a0000000000000000000000000000000000000000000000000000000008152600401610dee9190612b36565b60405180910390fd5b7f7b8909fc28e6ba66d8ee4a171654d7e13f4b89c8242416f64ed84ee592d9de883385838e8681518110610e54577f4e487b7100000000000000000000000000000000000000000000000000000000600052603260045260246000fd5b60200260200101518e8781518110610e95577f4e487b7100000000000000000000000000000000000000000000000000000000600052603260045260246000fd5b60200260200101518e8881518110610ed6577f4e487b7100000000000000000000000000000000000000000000000000000000600052603260045260246000fd5b6020026020010151604051610ef096959493929190612a4c565b60405180910390a1508080610f049061306e565b915050610acc565b50505050505050505050565b60028181548110610f2857600080fd5b906000526020600020016000915054906101000a900473ffffffffffffffffffffffffffffffffffffffff1681565b60015481565b600062015180600654610f709190612eaa565b421115610f81576005549050610f94565b600754600554610f919190612f68565b90505b90565b6000610fa1611cdc565b73ffffffffffffffffffffffffffffffffffffffff16610fbf611296565b73ffffffffffffffffffffffffffffffffffffffff1614611015576040517f08c379a000000000000000000000000000000000000000000000000000000000815260040161100c90612bf8565b60405180910390fd5b60006001549050826001819055507f2c01375dff82a53e71bae4e6109dfbd5c3b61001c7e8e290ab0e6bff73e1317681600154604051611056929190612cf3565b60405180910390a1600154915050919050565b611071611cdc565b73ffffffffffffffffffffffffffffffffffffffff1661108f611296565b73ffffffffffffffffffffffffffffffffffffffff16146110e5576040517f08c379a00000000000000000000000000000000000000000000000000000000081526004016110dc90612bf8565b60405180910390fd5b6000600360006101000a81548160ff0219169083151502179055507fb37f3f119e4c07b1e0b7320b20dc0b805a6f0fd449c3f0908cee2f6ec0cfbe5a3360405161112f9190612a31565b60405180910390a1565b611141611cdc565b73ffffffffffffffffffffffffffffffffffffffff1661115f611296565b73ffffffffffffffffffffffffffffffffffffffff16146111b5576040517f08c379a00000000000000000000000000000000000000000000000000000000081526004016111ac90612bf8565b60405180910390fd5b6111bf6000611ce4565b565b600080600090505b60028054905081101561128b578273ffffffffffffffffffffffffffffffffffffffff1660028281548110611227577f4e487b7100000000000000000000000000000000000000000000000000000000600052603260045260246000fd5b9060005260206000200160009054906101000a900473ffffffffffffffffffffffffffffffffffffffff1673ffffffffffffffffffffffffffffffffffffffff161415611278576001915050611291565b80806112839061306e565b9150506111c9565b50600090505b919050565b60008060009054906101000a900473ffffffffffffffffffffffffffffffffffffffff16905090565b6060600280548060200260200160405190810160405280929190818152602001828054801561134357602002820191906000526020600020905b8160009054906101000a900473ffffffffffffffffffffffffffffffffffffffff1673ffffffffffffffffffffffffffffffffffffffff16815260200190600101908083116112f9575b5050505050905090565b600360009054906101000a900460ff1681565b60055481565b6000611370611cdc565b73ffffffffffffffffffffffffffffffffffffffff1661138e611296565b73ffffffffffffffffffffffffffffffffffffffff16146113e4576040517f08c379a00000000000000000000000000000000000000000000000000000000081526004016113db90612bf8565b60405180910390fd5b60006005549050826005819055507fc2e1670500100a4a942d5cf659ed3d955cab9840ee54ba85e99a239bce6af55d81600554604051611425929190612cf3565b60405180910390a1600554915050919050565b611440611cdc565b73ffffffffffffffffffffffffffffffffffffffff1661145e611296565b73ffffffffffffffffffffffffffffffffffffffff16146114b4576040517f08c379a00000000000000000000000000000000000000000000000000000000081526004016114ab90612bf8565b60405180910390fd5b600073ffffffffffffffffffffffffffffffffffffffff168173ffffffffffffffffffffffffffffffffffffffff161415611524576040517f08c379a000000000000000000000000000000000000000000000000000000000815260040161151b90612b58565b60405180910390fd5b61152d81611ce4565b50565b620151806006546115419190612eaa565b421115611558574260068190555060006007819055505b61156e6001600754611a6090919063ffffffff16565b60078190555060055460075411156115bb576040517f08c379a00000000000000000000000000000000000000000000000000000000081526004016115b290612c18565b60405180910390fd5b600360009054906101000a900460ff161561160b576040517f08c379a000000000000000000000000000000000000000000000000000000000815260040161160290612cb8565b60405180910390fd5b42841161164d576040517f08c379a000000000000000000000000000000000000000000000000000000000815260040161164490612c78565b60405180910390fd5b60003046898989898960405160200161166c97969594939291906128c3565b60405160208183030381529060405280519060200120905061168c611eea565b6116968285611a76565b816000600281106116d0577f4e487b7100000000000000000000000000000000000000000000000000000000600052603260045260246000fd5b602002019073ffffffffffffffffffffffffffffffffffffffff16908173ffffffffffffffffffffffffffffffffffffffff16815250506117118284611a76565b8160016002811061174b577f4e487b7100000000000000000000000000000000000000000000000000000000600052603260045260246000fd5b602002019073ffffffffffffffffffffffffffffffffffffffff16908173ffffffffffffffffffffffffffffffffffffffff1681525050806001600281106117bc577f4e487b7100000000000000000000000000000000000000000000000000000000600052603260045260246000fd5b602002015173ffffffffffffffffffffffffffffffffffffffff1681600060028110611811577f4e487b7100000000000000000000000000000000000000000000000000000000600052603260045260246000fd5b602002015173ffffffffffffffffffffffffffffffffffffffff16141561186d576040517f08c379a000000000000000000000000000000000000000000000000000000000815260040161186490612b98565b60405180910390fd5b6004600083815260200190815260200160002060009054906101000a900460ff16156118ce576040517f08c379a00000000000000000000000000000000000000000000000000000000081526004016118c590612c38565b60405180910390fd5b60016004600084815260200190815260200160002060006101000a81548160ff021916908315150217905550611905898989611cbd565b611944576040517f08c379a000000000000000000000000000000000000000000000000000000000815260040161193b90612c58565b60405180910390fd5b7f7b8909fc28e6ba66d8ee4a171654d7e13f4b89c8242416f64ed84ee592d9de883382848c8c8c60405161197d96959493929190612a4c565b60405180910390a1505050505050505050565b611998611cdc565b73ffffffffffffffffffffffffffffffffffffffff166119b6611296565b73ffffffffffffffffffffffffffffffffffffffff1614611a0c576040517f08c379a0000000000000000000000000000000000000000000000000000000008152600401611a0390612bf8565b60405180910390fd5b6001600360006101000a81548160ff0219169083151502179055507f0909e8f76a4fd3e970f2eaef56c0ee6dfaf8b87c5b8d3f56ffce78e825a9115733604051611a569190612a31565b60405180910390a1565b60008183611a6e9190612eaa565b905092915050565b600080611a838484611da8565b9050600073ffffffffffffffffffffffffffffffffffffffff168173ffffffffffffffffffffffffffffffffffffffff1614158015611ac75750611ac6816111c1565b5b611b06576040517f08c379a0000000000000000000000000000000000000000000000000000000008152600401611afd90612b78565b60405180910390fd5b8091505092915050565b60606000821415611b58576040518060400160405280600181526020017f30000000000000000000000000000000000000000000000000000000000000008152509050611cb8565b600082905060005b60008214611b8a578080611b739061306e565b915050600a82611b839190612f37565b9150611b60565b60008167ffffffffffffffff811115611bcc577f4e487b7100000000000000000000000000000000000000000000000000000000600052604160045260246000fd5b6040519080825280601f01601f191660200182016040528015611bfe5781602001600182028036833780820191505090505b5090505b60008514611cb157600182611c179190612f68565b9150600a85611c2691906130ef565b6030611c329190612eaa565b60f81b818381518110611c6e577f4e487b7100000000000000000000000000000000000000000000000000000000600052603260045260246000fd5b60200101907effffffffffffffffffffffffffffffffffffffffffffffffffffffffffffff1916908160001a905350600a85611caa9190612f37565b9450611c02565b8093505050505b919050565b60008060208301600080855183888a5af1915050809150509392505050565b600033905090565b60008060009054906101000a900473ffffffffffffffffffffffffffffffffffffffff169050816000806101000a81548173ffffffffffffffffffffffffffffffffffffffff021916908373ffffffffffffffffffffffffffffffffffffffff1602179055508173ffffffffffffffffffffffffffffffffffffffff168173ffffffffffffffffffffffffffffffffffffffff167f8be0079c531659141344cd1fd0a4f28419497f9722a3daafe3b4186f6b6457e060405160405180910390a35050565b60006041825114611dee576040517f08c379a0000000000000000000000000000000000000000000000000000000008152600401611de590612c98565b60405180910390fd5b6000806000602085015192506040850151915060ff6041860151169050601b8160ff161015611e2757601b81611e249190612f00565b90505b60006040518060400160405280601c81526020017f19457468657265756d205369676e6564204d6573736167653a0a333200000000815250905060008188604051602001611e7692919061284f565b60405160208183030381529060405280519060200120905060018184878760405160008152602001604052604051611eb19493929190612af1565b6020604051602081039080840390855afa158015611ed3573d6000803e3d6000fd5b505050602060405103519550505050505092915050565b6040518060400160405280600290602082028036833780820191505090505090565b6000611f1f611f1a84612d41565b612d1c565b90508083825260208201905082856020860282011115611f3e57600080fd5b60005b85811015611f6e5781611f54888261207f565b845260208401935060208301925050600181019050611f41565b5050509392505050565b6000611f8b611f8684612d6d565b612d1c565b9050808382526020820190508260005b85811015611fcb5781358501611fb18882612112565b845260208401935060208301925050600181019050611f9b565b5050509392505050565b6000611fe8611fe384612d99565b612d1c565b9050808382526020820190508285602086028201111561200757600080fd5b60005b85811015612037578161201d888261213c565b84526020840193506020830192505060018101905061200a565b5050509392505050565b600061205461204f84612dc5565b612d1c565b90508281526020810184848401111561206c57600080fd5b612077848285612ffb565b509392505050565b60008135905061208e81613481565b92915050565b600082601f8301126120a557600080fd5b81356120b5848260208601611f0c565b91505092915050565b600082601f8301126120cf57600080fd5b81356120df848260208601611f78565b91505092915050565b600082601f8301126120f957600080fd5b8135612109848260208601611fd5565b91505092915050565b600082601f83011261212357600080fd5b8135612133848260208601612041565b91505092915050565b60008135905061214b81613498565b92915050565b60006020828403121561216357600080fd5b60006121718482850161207f565b91505092915050565b600080600080600080600060e0888a03121561219557600080fd5b60006121a38a828b0161207f565b97505060206121b48a828b0161213c565b965050604088013567ffffffffffffffff8111156121d157600080fd5b6121dd8a828b01612112565b95505060606121ee8a828b0161213c565b94505060806121ff8a828b0161213c565b93505060a088013567ffffffffffffffff81111561221c57600080fd5b6122288a828b01612112565b92505060c088013567ffffffffffffffff81111561224557600080fd5b6122518a828b01612112565b91505092959891949750929550565b600080600080600080600060e0888a03121561227b57600080fd5b600088013567ffffffffffffffff81111561229557600080fd5b6122a18a828b01612094565b975050602088013567ffffffffffffffff8111156122be57600080fd5b6122ca8a828b016120e8565b965050604088013567ffffffffffffffff8111156122e757600080fd5b6122f38a828b016120be565b95505060606123048a828b0161213c565b945050608088013567ffffffffffffffff81111561232157600080fd5b61232d8a828b016120e8565b93505060a088013567ffffffffffffffff81111561234a57600080fd5b6123568a828b01612112565b92505060c088013567ffffffffffffffff81111561237357600080fd5b61237f8a828b01612112565b91505092959891949750929550565b6000602082840312156123a057600080fd5b60006123ae8482850161213c565b91505092915050565b60006123c383836123cf565b60208301905092915050565b6123d881612f9c565b82525050565b6123e781612f9c565b82525050565b6123fe6123f982612f9c565b6130b7565b82525050565b61240d81612e10565b6124178184612e56565b925061242282612df6565b8060005b8381101561245357815161243a87826123b7565b965061244583612e3c565b925050600181019050612426565b505050505050565b600061246682612e1b565b6124708185612e61565b935061247b83612e00565b8060005b838110156124ac57815161249388826123b7565b975061249e83612e49565b92505060018101905061247f565b5085935050505092915050565b6124c281612fae565b82525050565b6124d181612fba565b82525050565b6124e86124e382612fba565b6130c9565b82525050565b60006124f982612e26565b6125038185612e72565b935061251381856020860161300a565b61251c816131ad565b840191505092915050565b600061253282612e26565b61253c8185612e83565b935061254c81856020860161300a565b80840191505092915050565b600061256382612e31565b61256d8185612e8e565b935061257d81856020860161300a565b612586816131ad565b840191505092915050565b600061259c82612e31565b6125a68185612e9f565b93506125b681856020860161300a565b80840191505092915050565b60006125cf600583612e9f565b91506125da826131cb565b600582019050919050565b60006125f2602683612e8e565b91506125fd826131f4565b604082019050919050565b6000612615600e83612e8e565b915061262082613243565b602082019050919050565b6000612638601983612e8e565b91506126438261326c565b602082019050919050565b600061265b601183612e9f565b915061266682613295565b601182019050919050565b600061267e600283612e9f565b9150612689826132be565b600282019050919050565b60006126a1601383612e8e565b91506126ac826132e7565b602082019050919050565b60006126c4601e83612e9f565b91506126cf82613310565b601e82019050919050565b60006126e7600c83612e8e565b91506126f282613339565b602082019050919050565b600061270a602083612e8e565b915061271582613362565b602082019050919050565b600061272d601283612e8e565b91506127388261338b565b602082019050919050565b6000612750601d83612e8e565b915061275b826133b4565b602082019050919050565b6000612773601083612e8e565b915061277e826133dd565b602082019050919050565b6000612796601383612e8e565b91506127a182613406565b602082019050919050565b60006127b9601883612e8e565b91506127c48261342f565b602082019050919050565b60006127dc600d83612e8e565b91506127e782613458565b602082019050919050565b6127fb81612fe4565b82525050565b61281261280d82612fe4565b6130e5565b82525050565b61282181612fee565b82525050565b60006128338285612527565b915061283f82846123ed565b6014820191508190509392505050565b600061285b8285612527565b915061286782846124d7565b6020820191508190509392505050565b60006128838285612527565b915061288f8284612527565b91508190509392505050565b60006128a78285612527565b91506128b38284612801565b6020820191508190509392505050565b60006128ce826125c2565b91506128da828a6123ed565b6014820191506128ea8289612801565b6020820191506128fa82886123ed565b60148201915061290a8287612801565b60208201915061291a8286612527565b91506129268285612801565b6020820191506129368284612801565b60208201915081905098975050505050505050565b6000612956826125c2565b9150612962828a6123ed565b6014820191506129728289612801565b60208201915061298282886124d7565b60208201915061299282876124d7565b6020820191506129a282866124d7565b6020820191506129b28285612801565b6020820191506129c282846124d7565b60208201915081905098975050505050505050565b60006129e282612671565b91506129ee8284612591565b91506129f98261264e565b915081905092915050565b6000612a0f82612671565b9150612a1b8284612591565b9150612a26826126b7565b915081905092915050565b6000602082019050612a4660008301846123de565b92915050565b600060e082019050612a6160008301896123de565b612a6e6020830188612404565b612a7b60608301876124c8565b612a8860808301866123de565b612a9560a08301856127f2565b81810360c0830152612aa781846124ee565b9050979650505050505050565b60006020820190508181036000830152612ace818461245b565b905092915050565b6000602082019050612aeb60008301846124b9565b92915050565b6000608082019050612b0660008301876124c8565b612b136020830186612818565b612b2060408301856124c8565b612b2d60608301846124c8565b95945050505050565b60006020820190508181036000830152612b508184612558565b905092915050565b60006020820190508181036000830152612b71816125e5565b9050919050565b60006020820190508181036000830152612b9181612608565b9050919050565b60006020820190508181036000830152612bb18161262b565b9050919050565b60006020820190508181036000830152612bd181612694565b9050919050565b60006020820190508181036000830152612bf1816126da565b9050919050565b60006020820190508181036000830152612c11816126fd565b9050919050565b60006020820190508181036000830152612c3181612720565b9050919050565b60006020820190508181036000830152612c5181612743565b9050919050565b60006020820190508181036000830152612c7181612766565b9050919050565b60006020820190508181036000830152612c9181612789565b9050919050565b60006020820190508181036000830152612cb1816127ac565b9050919050565b60006020820190508181036000830152612cd1816127cf565b9050919050565b6000602082019050612ced60008301846127f2565b92915050565b6000604082019050612d0860008301856127f2565b612d1560208301846127f2565b9392505050565b6000612d26612d37565b9050612d32828261303d565b919050565b6000604051905090565b600067ffffffffffffffff821115612d5c57612d5b61317e565b5b602082029050602081019050919050565b600067ffffffffffffffff821115612d8857612d8761317e565b5b602082029050602081019050919050565b600067ffffffffffffffff821115612db457612db361317e565b5b602082029050602081019050919050565b600067ffffffffffffffff821115612de057612ddf61317e565b5b612de9826131ad565b9050602081019050919050565b6000819050919050565b6000819050602082019050919050565b600060029050919050565b600081519050919050565b600081519050919050565b600081519050919050565b6000602082019050919050565b6000602082019050919050565b600081905092915050565b600082825260208201905092915050565b600082825260208201905092915050565b600081905092915050565b600082825260208201905092915050565b600081905092915050565b6000612eb582612fe4565b9150612ec083612fe4565b9250827fffffffffffffffffffffffffffffffffffffffffffffffffffffffffffffffff03821115612ef557612ef4613120565b5b828201905092915050565b6000612f0b82612fee565b9150612f1683612fee565b92508260ff03821115612f2c57612f2b613120565b5b828201905092915050565b6000612f4282612fe4565b9150612f4d83612fe4565b925082612f5d57612f5c61314f565b5b828204905092915050565b6000612f7382612fe4565b9150612f7e83612fe4565b925082821015612f9157612f90613120565b5b828203905092915050565b6000612fa782612fc4565b9050919050565b60008115159050919050565b6000819050919050565b600073ffffffffffffffffffffffffffffffffffffffff82169050919050565b6000819050919050565b600060ff82169050919050565b82818337600083830152505050565b60005b8381101561302857808201518184015260208101905061300d565b83811115613037576000848401525b50505050565b613046826131ad565b810181811067ffffffffffffffff821117156130655761306461317e565b5b80604052505050565b600061307982612fe4565b91507fffffffffffffffffffffffffffffffffffffffffffffffffffffffffffffffff8214156130ac576130ab613120565b5b600182019050919050565b60006130c2826130d3565b9050919050565b6000819050919050565b60006130de826131be565b9050919050565b6000819050919050565b60006130fa82612fe4565b915061310583612fe4565b9250826131155761311461314f565b5b828206905092915050565b7f4e487b7100000000000000000000000000000000000000000000000000000000600052601160045260246000fd5b7f4e487b7100000000000000000000000000000000000000000000000000000000600052601260045260246000fd5b7f4e487b7100000000000000000000000000000000000000000000000000000000600052604160045260246000fd5b6000601f19601f8301169050919050565b60008160601b9050919050565b7f4554484552000000000000000000000000000000000000000000000000000000600082015250565b7f4f776e61626c653a206e6577206f776e657220697320746865207a65726f206160008201527f6464726573730000000000000000000000000000000000000000000000000000602082015250565b7f696e76616c6964207369676e6572000000000000000000000000000000000000600082015250565b7f63616e2774207369676e2062792073616d65207369676e657200000000000000600082015250565b7f5d657865637574696f6e206661696c6564000000000000000000000000000000600082015250565b7f5b23000000000000000000000000000000000000000000000000000000000000600082015250565b7f63616e277420726563656976652076616c756500000000000000000000000000600082015250565b7f5d5472616e73616374696f6e20686173206265656e2065786563757465640000600082015250565b7f457863656564206c696d69740000000000000000000000000000000000000000600082015250565b7f4f776e61626c653a2063616c6c6572206973206e6f7420746865206f776e6572600082015250565b7f457863656564206461696c79206c696d69740000000000000000000000000000600082015250565b7f5472616e73616374696f6e20686173206265656e206578656375746564000000600082015250565b7f657865637574696f6e206661696c656400000000000000000000000000000000600082015250565b7f7472616e73616374696f6e206578706972656400000000000000000000000000600082015250565b7f696e76616c6964207369676e6174757265206c656e6774680000000000000000600082015250565b7f496e2073616665206d6f64652100000000000000000000000000000000000000600082015250565b61348a81612f9c565b811461349557600080fd5b50565b6134a181612fe4565b81146134ac57600080fd5b5056fea26469706673582212202ccd253edd4e68c3e3427db50e903a07ee849d04749265e48180311ebfd860bf64736f6c63430008010033",
  "immutableReferences": {},
  "source": "// SPDX-License-Identifier: MIT\r\npragma solidity 0.8.1;\r\n\r\nimport \"@openzeppelin/contracts/access/Ownable.sol\";\r\nimport \"@openzeppelin/contracts/utils/math/SafeMath.sol\";\r\n\r\ncontract OperatorDoubleSig is Ownable {\r\n    using SafeMath for uint256;\r\n    uint256 public BUNDLE_MAXIMUM = 300;\r\n\r\n    // Events\r\n    event SafeModeActivated(address msgSender);\r\n    event SafeModeDeactivated(address msgSender);\r\n\r\n    event Transacted(\r\n        address msgSender, // Address of the sender of the message initiating the transaction\r\n        address[2] signers, // Address of the signers\r\n        bytes32 operation, // Operation hash (see Data Formats)\r\n        address toAddress, // The address the transaction was sent to\r\n        uint256 value, // Amount of Wei sent to the address\r\n        bytes data // Data sent when invoking the transaction\r\n    );\r\n    event DailyLimitChange(uint256 origin, uint256 current);\r\n    event BundleMaximumChange(uint256 origin, uint256 current);\r\n\r\n    // Public fields\r\n    address[] public signers; // The addresses that can co-sign transactions on the wallet\r\n    bool public safeMode = false; // When active, wallet may only send to signer addresses\r\n\r\n    // Internal fields\r\n    mapping(bytes32 => bool) historyTransactions;\r\n\r\n    uint public txDailyLimit;\r\n    uint lastDay;\r\n    uint txToday;\r\n\r\n    /**\r\n     * Set up a simple multi-sig wallet by specifying the signers allowed to be used on this wallet.\r\n     * 2 signers will be required to send a transaction from this wallet.\r\n     * Note: The sender is NOT automatically added to the list of signers.\r\n     * Signers CANNOT be changed once they are set\r\n     *\r\n     * @param allowedSigners An array of signers on the wallet\r\n     */\r\n    constructor(address[] memory allowedSigners, uint256 txDailyLimit_) {\r\n        if (allowedSigners.length != 3) {\r\n            // Invalid number of signers\r\n            revert();\r\n        }\r\n        signers = allowedSigners;\r\n        txDailyLimit = txDailyLimit_;\r\n    }\r\n\r\n    receive() external payable {\r\n        if (msg.value > 0) {\r\n            revert(\"can't receive value\");\r\n        }\r\n    }\r\n\r\n    modifier underLimit()\r\n    {\r\n        if (block.timestamp > lastDay + 24 hours) {\r\n            lastDay = block.timestamp;\r\n            txToday = 0;\r\n        }\r\n        txToday = txToday.add(1);\r\n        require(txToday <= txDailyLimit, \"Exceed daily limit\");\r\n        _;\r\n    }\r\n\r\n    modifier notInSafeMode() {\r\n        require(!safeMode, \"In safe mode!\");\r\n        _;\r\n    }\r\n\r\n    function changeDailyLimit(uint256 limit_) external onlyOwner returns (uint256) {\r\n        uint256 preDailyLimit = txDailyLimit;\r\n        txDailyLimit = limit_;\r\n        emit DailyLimitChange(preDailyLimit, txDailyLimit);\r\n        return txDailyLimit;\r\n    }\r\n\r\n    function changeBundleMaximum(uint256 maximum_) external onlyOwner returns (uint256) {\r\n        uint256 preBundleMaximum = BUNDLE_MAXIMUM;\r\n        BUNDLE_MAXIMUM = maximum_;\r\n        emit BundleMaximumChange(preBundleMaximum, BUNDLE_MAXIMUM);\r\n        return BUNDLE_MAXIMUM;\r\n    }\r\n\r\n    /**\r\n     * Determine if an address is a signer on this wallet\r\n     * @param signer address to check\r\n     * returns boolean indicating whether address is signer or not\r\n     */\r\n    function isSigner(address signer) public view returns (bool) {\r\n        // Iterate through all signers on the wallet and\r\n        for (uint256 i = 0; i < signers.length; i++) {\r\n            if (signers[i] == signer) {\r\n                return true;\r\n            }\r\n        }\r\n        return false;\r\n    }\r\n\r\n    /**\r\n     * get all signers\r\n     * returns all signers\r\n     */\r\n    function getSigners() external view returns (address[] memory) {\r\n        return signers;\r\n    }\r\n\r\n    /**\r\n     * Execute a multi-signature transaction from this wallet using 2 signers.\r\n     * Salt are used to prevent replay attacks and may not be repeated.\r\n     *\r\n     * @param toAddress the destination address to send an outgoing transaction\r\n     * @param value the amount in Wei to be sent\r\n     * @param data the data to send to the toAddress when invoking the transaction\r\n     * @param expireTime the number of seconds since 1970 for which this transaction is valid\r\n     * @param salt salt used to prevent duplicate hashes\r\n     * @param signature1 see Data Formats\r\n     * @param signature2 see Data Formats\r\n     */\r\n    function sendMultiSig(\r\n        address toAddress,\r\n        uint256 value,\r\n        bytes memory data,\r\n        uint256 expireTime,\r\n        uint256 salt,\r\n        bytes memory signature1,\r\n        bytes memory signature2\r\n    ) external underLimit notInSafeMode {\r\n        // Verify that the transaction has not expired\r\n        require(expireTime > block.timestamp, \"transaction expired\");\r\n\r\n        // Verify the other signer\r\n        bytes32 operationHash = keccak256(abi.encodePacked(\"ETHER\", address(this), block.chainid, toAddress, value, data, expireTime, salt));\r\n\r\n        address[2] memory signerSet;\r\n        signerSet[0] = verifyMultiSig(operationHash, signature1);\r\n        signerSet[1] = verifyMultiSig(operationHash, signature2);\r\n\r\n        require(signerSet[0] != signerSet[1], \"can't sign by same signer\");\r\n\r\n        require(!historyTransactions[operationHash], \"Transaction has been executed\");\r\n        // Try to insert operationHash\r\n        historyTransactions[operationHash] = true;\r\n\r\n        // Success, send the transaction\r\n        if (!external_call(toAddress, value, data)) {\r\n            // Failed executing transaction\r\n            revert(\"execution failed\");\r\n        }\r\n        emit Transacted(msg.sender, signerSet, operationHash, toAddress, value, data);\r\n    }\r\n\r\n    /**\r\n     * Execute a multi-signature transaction from this wallet using 2 signers.\r\n     * Salt are used to prevent replay attacks and may not be repeated.\r\n     *\r\n     * @param toAddresses the destination address to send an outgoing transaction\r\n     * @param values the amount in Wei to be sent\r\n     * @param datas the data to send to the toAddress when invoking the transaction\r\n     * @param expireTime the number of seconds since 1970 for which this transaction is valid\r\n     * @param salts salt used to prevent duplicate hashes\r\n     * @param signature1 see Data Formats\r\n     * @param signature2 see Data Formats\r\n     */\r\n    function sendMultiSigBundle(\r\n        address[] memory toAddresses,\r\n        uint256[] memory values,\r\n        bytes[] memory datas,\r\n        uint256 expireTime,\r\n        uint256[] memory salts,\r\n        bytes memory signature1,\r\n        bytes memory signature2\r\n    ) external underLimit notInSafeMode {\r\n        require(toAddresses.length <= BUNDLE_MAXIMUM && values.length <= BUNDLE_MAXIMUM && datas.length <= BUNDLE_MAXIMUM && salts.length <= BUNDLE_MAXIMUM, \"Exceed limit\");\r\n        require(toAddresses.length == datas.length && toAddresses.length == values.length && toAddresses.length == salts.length);\r\n        // Verify that the transaction has not expired\r\n        require(expireTime > block.timestamp, \"transaction expired\");\r\n\r\n        address[2] memory signerSet;\r\n        bytes32 bundleHash;\r\n\r\n        // \"{  }\" for avoid stack too deep errors\r\n        {\r\n            bytes memory packedData;\r\n            bytes memory packedAddress;\r\n            bytes memory packedValues;\r\n            bytes memory packedSalt;\r\n            for (uint256 i = 0; i < datas.length; i++) {\r\n                packedData = abi.encodePacked(packedData, datas[i]);\r\n                packedValues = abi.encodePacked(packedValues, values[i]);\r\n                packedAddress = abi.encodePacked(packedAddress, toAddresses[i]);\r\n                packedSalt = abi.encodePacked(packedSalt, salts[i]);\r\n            }\r\n            bytes32[4] memory hashes = [keccak256(packedAddress), keccak256(packedValues), keccak256(packedData), keccak256(packedSalt)];\r\n\r\n            // Verify the other signer\r\n            bundleHash = keccak256(abi.encodePacked(\"ETHER\", address(this), block.chainid, hashes[0], hashes[1], hashes[2], expireTime, hashes[3]));\r\n        }\r\n\r\n        {\r\n            signerSet[0] = verifyMultiSig(bundleHash, signature1);\r\n            signerSet[1] = verifyMultiSig(bundleHash, signature2);\r\n\r\n            require(signerSet[0] != signerSet[1], \"can't sign by same signer\");\r\n\r\n            // Success, send all transaction\r\n            for (uint256 i = 0; i < datas.length; i++) {\r\n                bytes32 operationHash = keccak256(abi.encodePacked(\"ETHER\", address(this), block.chainid, toAddresses[i], values[i], datas[i], expireTime, salts[i]));\r\n                require(!historyTransactions[operationHash], string(abi.encodePacked(\"[#\", toString(i) ,\"]Transaction has been executed\")));\r\n                // Try to insert operationHash\r\n                historyTransactions[operationHash] = true;\r\n\r\n                if (!external_call(toAddresses[i], values[i], datas[i])) {\r\n                    // Failed executing transaction\r\n                    revert(string(abi.encodePacked(\"[#\", toString(i) ,\"]execution failed\")));\r\n                }\r\n                emit Transacted(msg.sender, signerSet, operationHash, toAddresses[i], values[i], datas[i]);\r\n            }\r\n        }\r\n    }\r\n\r\n    // call has been separated into its own function in order to take advantage\r\n    // of the Solidity's code generator to produce a loop that copies tx.data into memory.\r\n    function external_call(\r\n        address destination,\r\n        uint256 value,\r\n        bytes memory data\r\n    ) internal returns (bool) {\r\n        bool result;\r\n        assembly {\r\n            let d := add(data, 32) // First 32 bytes are the padded length of data, so exclude that\r\n            result := call(\r\n            gas(),\r\n            destination,\r\n            value,\r\n            d,\r\n            mload(data), // Size of the input (in bytes)\r\n            0,\r\n            0 // Output is ignored, therefore the output size is zero\r\n            )\r\n        }\r\n        return result;\r\n    }\r\n\r\n    function calcMaxWithdraw()\r\n    external\r\n    view\r\n    returns (uint)\r\n    {\r\n        if (block.timestamp > lastDay + 24 hours)\r\n            return txDailyLimit;\r\n        return txDailyLimit - txToday;\r\n    }\r\n\r\n    /**\r\n     * Do common multisig verification for both eth sends and erc20token transfers\r\n     *\r\n     * @param operationHash see Data Formats\r\n     * @param signature see Data Formats\r\n     */\r\n    function verifyMultiSig(\r\n        bytes32 operationHash,\r\n        bytes memory signature\r\n    ) private view returns (address) {\r\n        address signer = recoverAddressFromSignature(operationHash, signature);\r\n        require(signer != address(0) && isSigner(signer), \"invalid signer\");\r\n        return signer;\r\n    }\r\n\r\n    /**\r\n     * puts contract into safe mode.\r\n     */\r\n    function activateSafeMode() external onlyOwner {\r\n        safeMode = true;\r\n        emit SafeModeActivated(msg.sender);\r\n    }\r\n\r\n    function deactivateSafeMode() external onlyOwner {\r\n        safeMode = false;\r\n        emit SafeModeDeactivated(msg.sender);\r\n    }\r\n\r\n    /**\r\n     * Gets signer's address using ecrecover\r\n     * @param operationHash see Data Formats\r\n     * @param signature see Data Formats\r\n     * returns address recovered from the signature\r\n     */\r\n    function recoverAddressFromSignature(\r\n        bytes32 operationHash,\r\n        bytes memory signature\r\n    ) private pure returns (address) {\r\n        if (signature.length != 65) {\r\n            revert(\"invalid signature length\");\r\n        }\r\n        // We need to unpack the signature, which is given as an array of 65 bytes (like eth.sign)\r\n        bytes32 r;\r\n        bytes32 s;\r\n        uint8 v;\r\n        assembly {\r\n            r := mload(add(signature, 32))\r\n            s := mload(add(signature, 64))\r\n            v := and(mload(add(signature, 65)), 255)\r\n        }\r\n        if (v < 27) {\r\n            v += 27;\r\n            // Ethereum versions are 27 or 28 as opposed to 0 or 1 which is submitted by some signing libs\r\n        }\r\n        bytes memory prefix = \"\\x19Ethereum Signed Message:\\n32\";\r\n        bytes32 prefixedProof =\r\n        keccak256(abi.encodePacked(prefix, operationHash));\r\n        return ecrecover(prefixedProof, v, r, s);\r\n    }\r\n    function toString(uint256 value) internal pure returns (string memory) {\r\n        // Inspired by OraclizeAPI's implementation - MIT license\r\n        // https://github.com/oraclize/ethereum-api/blob/b42146b063c7d6ee1358846c198246239e9360e8/oraclizeAPI_0.4.25.sol\r\n\r\n        if (value == 0) {\r\n            return \"0\";\r\n        }\r\n        uint256 temp = value;\r\n        uint256 digits;\r\n        while (temp != 0) {\r\n            digits++;\r\n            temp /= 10;\r\n        }\r\n        bytes memory buffer = new bytes(digits);\r\n        while (value != 0) {\r\n            digits -= 1;\r\n            buffer[digits] = bytes1(uint8(48 + uint256(value % 10)));\r\n            value /= 10;\r\n        }\r\n        return string(buffer);\r\n    }\r\n}\r\n",
  "sourcePath": "E:\\BN\\OperatorDoubleSig\\contracts\\OperatorDoubleSig.sol",
  "compiler": {
    "name": "solc",
    "version": "0.8.1+commit.df193b15.Emscripten.clang"
  },
  "schemaVersion": "3.4.3",
  "updatedAt": "2022-03-07T13:33:33.780Z",
  "networkType": "ethereum",
  "devdoc": {
    "kind": "dev",
    "methods": {
      "constructor": {
        "params": {
          "allowedSigners": "An array of signers on the wallet"
        }
      },
      "isSigner(address)": {
        "params": {
          "signer": "address to check returns boolean indicating whether address is signer or not"
        }
      },
      "owner()": {
        "details": "Returns the address of the current owner."
      },
      "renounceOwnership()": {
        "details": "Leaves the contract without owner. It will not be possible to call `onlyOwner` functions anymore. Can only be called by the current owner. NOTE: Renouncing ownership will leave the contract without an owner, thereby removing any functionality that is only available to the owner."
      },
      "sendMultiSig(address,uint256,bytes,uint256,uint256,bytes,bytes)": {
        "params": {
          "data": "the data to send to the toAddress when invoking the transaction",
          "expireTime": "the number of seconds since 1970 for which this transaction is valid",
          "salt": "salt used to prevent duplicate hashes",
          "signature1": "see Data Formats",
          "signature2": "see Data Formats",
          "toAddress": "the destination address to send an outgoing transaction",
          "value": "the amount in Wei to be sent"
        }
      },
      "sendMultiSigBundle(address[],uint256[],bytes[],uint256,uint256[],bytes,bytes)": {
        "params": {
          "datas": "the data to send to the toAddress when invoking the transaction",
          "expireTime": "the number of seconds since 1970 for which this transaction is valid",
          "salts": "salt used to prevent duplicate hashes",
          "signature1": "see Data Formats",
          "signature2": "see Data Formats",
          "toAddresses": "the destination address to send an outgoing transaction",
          "values": "the amount in Wei to be sent"
        }
      },
      "transferOwnership(address)": {
        "details": "Transfers ownership of the contract to a new account (`newOwner`). Can only be called by the current owner."
      }
    },
    "version": 1
  },
  "userdoc": {
    "kind": "user",
    "methods": {
      "activateSafeMode()": {
        "notice": "puts contract into safe mode."
      },
      "constructor": {
        "notice": "Set up a simple multi-sig wallet by specifying the signers allowed to be used on this wallet. 2 signers will be required to send a transaction from this wallet. Note: The sender is NOT automatically added to the list of signers. Signers CANNOT be changed once they are set"
      },
      "getSigners()": {
        "notice": "get all signers returns all signers"
      },
      "isSigner(address)": {
        "notice": "Determine if an address is a signer on this wallet"
      },
      "sendMultiSig(address,uint256,bytes,uint256,uint256,bytes,bytes)": {
        "notice": "Execute a multi-signature transaction from this wallet using 2 signers. Salt are used to prevent replay attacks and may not be repeated."
      },
      "sendMultiSigBundle(address[],uint256[],bytes[],uint256,uint256[],bytes,bytes)": {
        "notice": "Execute a multi-signature transaction from this wallet using 2 signers. Salt are used to prevent replay attacks and may not be repeated."
      }
    },
    "version": 1
  }
}