{
  "contractName": "BNFT",
  "abi": [
    {
      "inputs": [
        {
          "internalType": "address",
          "name": "admin_",
          "type": "address"
        },
        {
          "internalType": "string",
          "name": "baseURI_",
          "type": "string"
        },
        {
          "internalType": "string",
          "name": "name_",
          "type": "string"
        },
        {
          "internalType": "string",
          "name": "symbol_",
          "type": "string"
        }
      ],
      "stateMutability": "nonpayable",
      "type": "constructor"
    },
    {
      "anonymous": false,
      "inputs": [
        {
          "indexed": true,
          "internalType": "address",
          "name": "owner",
          "type": "address"
        },
        {
          "indexed": true,
          "internalType": "address",
          "name": "approved",
          "type": "address"
        },
        {
          "indexed": true,
          "internalType": "uint256",
          "name": "tokenId",
          "type": "uint256"
        }
      ],
      "name": "Approval",
      "type": "event"
    },
    {
      "anonymous": false,
      "inputs": [
        {
          "indexed": true,
          "internalType": "address",
          "name": "owner",
          "type": "address"
        },
        {
          "indexed": true,
          "internalType": "address",
          "name": "operator",
          "type": "address"
        },
        {
          "indexed": false,
          "internalType": "bool",
          "name": "approved",
          "type": "bool"
        }
      ],
      "name": "ApprovalForAll",
      "type": "event"
    },
    {
      "anonymous": false,
      "inputs": [
        {
          "indexed": false,
          "internalType": "address",
          "name": "account",
          "type": "address"
        }
      ],
      "name": "Paused",
      "type": "event"
    },
    {
      "anonymous": false,
      "inputs": [
        {
          "indexed": true,
          "internalType": "address",
          "name": "from",
          "type": "address"
        },
        {
          "indexed": true,
          "internalType": "address",
          "name": "to",
          "type": "address"
        },
        {
          "indexed": true,
          "internalType": "uint256",
          "name": "tokenId",
          "type": "uint256"
        }
      ],
      "name": "Transfer",
      "type": "event"
    },
    {
      "anonymous": false,
      "inputs": [
        {
          "indexed": false,
          "internalType": "address",
          "name": "account",
          "type": "address"
        }
      ],
      "name": "Unpaused",
      "type": "event"
    },
    {
      "inputs": [],
      "name": "admin",
      "outputs": [
        {
          "internalType": "address",
          "name": "",
          "type": "address"
        }
      ],
      "stateMutability": "view",
      "type": "function",
      "constant": true
    },
    {
      "inputs": [
        {
          "internalType": "address",
          "name": "to",
          "type": "address"
        },
        {
          "internalType": "uint256",
          "name": "tokenId",
          "type": "uint256"
        }
      ],
      "name": "approve",
      "outputs": [],
      "stateMutability": "nonpayable",
      "type": "function"
    },
    {
      "inputs": [
        {
          "internalType": "address",
          "name": "owner",
          "type": "address"
        }
      ],
      "name": "balanceOf",
      "outputs": [
        {
          "internalType": "uint256",
          "name": "",
          "type": "uint256"
        }
      ],
      "stateMutability": "view",
      "type": "function",
      "constant": true
    },
    {
      "inputs": [
        {
          "internalType": "uint256",
          "name": "tokenId",
          "type": "uint256"
        }
      ],
      "name": "getApproved",
      "outputs": [
        {
          "internalType": "address",
          "name": "",
          "type": "address"
        }
      ],
      "stateMutability": "view",
      "type": "function",
      "constant": true
    },
    {
      "inputs": [
        {
          "internalType": "address",
          "name": "owner",
          "type": "address"
        },
        {
          "internalType": "address",
          "name": "operator",
          "type": "address"
        }
      ],
      "name": "isApprovedForAll",
      "outputs": [
        {
          "internalType": "bool",
          "name": "",
          "type": "bool"
        }
      ],
      "stateMutability": "view",
      "type": "function",
      "constant": true
    },
    {
      "inputs": [],
      "name": "name",
      "outputs": [
        {
          "internalType": "string",
          "name": "",
          "type": "string"
        }
      ],
      "stateMutability": "view",
      "type": "function",
      "constant": true
    },
    {
      "inputs": [
        {
          "internalType": "uint256",
          "name": "tokenId",
          "type": "uint256"
        }
      ],
      "name": "ownerOf",
      "outputs": [
        {
          "internalType": "address",
          "name": "",
          "type": "address"
        }
      ],
      "stateMutability": "view",
      "type": "function",
      "constant": true
    },
    {
      "inputs": [],
      "name": "paused",
      "outputs": [
        {
          "internalType": "bool",
          "name": "",
          "type": "bool"
        }
      ],
      "stateMutability": "view",
      "type": "function",
      "constant": true
    },
    {
      "inputs": [
        {
          "internalType": "address",
          "name": "from",
          "type": "address"
        },
        {
          "internalType": "address",
          "name": "to",
          "type": "address"
        },
        {
          "internalType": "uint256",
          "name": "tokenId",
          "type": "uint256"
        }
      ],
      "name": "safeTransferFrom",
      "outputs": [],
      "stateMutability": "nonpayable",
      "type": "function"
    },
    {
      "inputs": [
        {
          "internalType": "address",
          "name": "from",
          "type": "address"
        },
        {
          "internalType": "address",
          "name": "to",
          "type": "address"
        },
        {
          "internalType": "uint256",
          "name": "tokenId",
          "type": "uint256"
        },
        {
          "internalType": "bytes",
          "name": "_data",
          "type": "bytes"
        }
      ],
      "name": "safeTransferFrom",
      "outputs": [],
      "stateMutability": "nonpayable",
      "type": "function"
    },
    {
      "inputs": [
        {
          "internalType": "address",
          "name": "operator",
          "type": "address"
        },
        {
          "internalType": "bool",
          "name": "approved",
          "type": "bool"
        }
      ],
      "name": "setApprovalForAll",
      "outputs": [],
      "stateMutability": "nonpayable",
      "type": "function"
    },
    {
      "inputs": [
        {
          "internalType": "bytes4",
          "name": "interfaceId",
          "type": "bytes4"
        }
      ],
      "name": "supportsInterface",
      "outputs": [
        {
          "internalType": "bool",
          "name": "",
          "type": "bool"
        }
      ],
      "stateMutability": "view",
      "type": "function",
      "constant": true
    },
    {
      "inputs": [],
      "name": "symbol",
      "outputs": [
        {
          "internalType": "string",
          "name": "",
          "type": "string"
        }
      ],
      "stateMutability": "view",
      "type": "function",
      "constant": true
    },
    {
      "inputs": [
        {
          "internalType": "uint256",
          "name": "index",
          "type": "uint256"
        }
      ],
      "name": "tokenByIndex",
      "outputs": [
        {
          "internalType": "uint256",
          "name": "",
          "type": "uint256"
        }
      ],
      "stateMutability": "view",
      "type": "function",
      "constant": true
    },
    {
      "inputs": [
        {
          "internalType": "address",
          "name": "owner",
          "type": "address"
        },
        {
          "internalType": "uint256",
          "name": "index",
          "type": "uint256"
        }
      ],
      "name": "tokenOfOwnerByIndex",
      "outputs": [
        {
          "internalType": "uint256",
          "name": "",
          "type": "uint256"
        }
      ],
      "stateMutability": "view",
      "type": "function",
      "constant": true
    },
    {
      "inputs": [],
      "name": "totalSupply",
      "outputs": [
        {
          "internalType": "uint256",
          "name": "",
          "type": "uint256"
        }
      ],
      "stateMutability": "view",
      "type": "function",
      "constant": true
    },
    {
      "inputs": [
        {
          "internalType": "address",
          "name": "from",
          "type": "address"
        },
        {
          "internalType": "address",
          "name": "to",
          "type": "address"
        },
        {
          "internalType": "uint256",
          "name": "tokenId",
          "type": "uint256"
        }
      ],
      "name": "transferFrom",
      "outputs": [],
      "stateMutability": "nonpayable",
      "type": "function"
    },
    {
      "inputs": [
        {
          "internalType": "uint256",
          "name": "tokenId",
          "type": "uint256"
        }
      ],
      "name": "tokenURI",
      "outputs": [
        {
          "internalType": "string",
          "name": "",
          "type": "string"
        }
      ],
      "stateMutability": "view",
      "type": "function",
      "constant": true
    },
    {
      "inputs": [],
      "name": "setPause",
      "outputs": [],
      "stateMutability": "nonpayable",
      "type": "function"
    },
    {
      "inputs": [],
      "name": "unsetPause",
      "outputs": [],
      "stateMutability": "nonpayable",
      "type": "function"
    },
    {
      "inputs": [
        {
          "internalType": "string",
          "name": "newBaseURI",
          "type": "string"
        }
      ],
      "name": "changeBaseURI",
      "outputs": [],
      "stateMutability": "nonpayable",
      "type": "function"
    }
  ],
  "bytecode": "0x60a06040523480156200001157600080fd5b5060405162003c1738038062003c17833981810160405281019062000037919062000240565b8382828273ffffffffffffffffffffffffffffffffffffffff1660808173ffffffffffffffffffffffffffffffffffffffff1660601b8152505081600090805190602001906200008992919062000107565b508060019080519060200190620000a292919062000107565b505050506000600a60006101000a81548160ff0219169083151502179055508281604051602001620000d692919062000355565b604051602081830303815290604052600b9080519060200190620000fc92919062000107565b505050505062000587565b828054620001159062000469565b90600052602060002090601f01602090048101928262000139576000855562000185565b82601f106200015457805160ff191683800117855562000185565b8280016001018555821562000185579182015b828111156200018457825182559160200191906001019062000167565b5b50905062000194919062000198565b5090565b5b80821115620001b357600081600090555060010162000199565b5090565b6000620001ce620001c884620003b3565b6200038a565b905082815260208101848484011115620001e757600080fd5b620001f484828562000433565b509392505050565b6000815190506200020d816200056d565b92915050565b600082601f8301126200022557600080fd5b815162000237848260208601620001b7565b91505092915050565b600080600080608085870312156200025757600080fd5b60006200026787828801620001fc565b945050602085015167ffffffffffffffff8111156200028557600080fd5b620002938782880162000213565b935050604085015167ffffffffffffffff811115620002b157600080fd5b620002bf8782880162000213565b925050606085015167ffffffffffffffff811115620002dd57600080fd5b620002eb8782880162000213565b91505092959194509250565b60006200030482620003e9565b620003108185620003f4565b93506200032281856020860162000433565b80840191505092915050565b60006200033d600183620003f4565b91506200034a8262000544565b600182019050919050565b6000620003638285620002f7565b9150620003718284620002f7565b91506200037e826200032e565b91508190509392505050565b600062000396620003a9565b9050620003a482826200049f565b919050565b6000604051905090565b600067ffffffffffffffff821115620003d157620003d062000504565b5b620003dc8262000533565b9050602081019050919050565b600081519050919050565b600081905092915050565b60006200040c8262000413565b9050919050565b600073ffffffffffffffffffffffffffffffffffffffff82169050919050565b60005b838110156200045357808201518184015260208101905062000436565b8381111562000463576000848401525b50505050565b600060028204905060018216806200048257607f821691505b60208210811415620004995762000498620004d5565b5b50919050565b620004aa8262000533565b810181811067ffffffffffffffff82111715620004cc57620004cb62000504565b5b80604052505050565b7f4e487b7100000000000000000000000000000000000000000000000000000000600052602260045260246000fd5b7f4e487b7100000000000000000000000000000000000000000000000000000000600052604160045260246000fd5b6000601f19601f8301169050919050565b7f2f00000000000000000000000000000000000000000000000000000000000000600082015250565b6200057881620003ff565b81146200058457600080fd5b50565b60805160601c613647620005d0600039600081816107d40152818161096101528181610a7e01528181610e1b01528181610f490152818161117e01526111e201526136476000f3fe608060405234801561001057600080fd5b50600436106101375760003560e01c80634f842143116100b8578063a22cb4651161007c578063a22cb4651461034e578063b88d4fde1461036a578063c87b56dd14610386578063d431b1ac146103b6578063e985e9c5146103c0578063f851a440146103f057610137565b80634f842143146102a85780635c975abb146102b25780636352211e146102d057806370a082311461030057806395d89b411461033057610137565b806323b872dd116100ff57806323b872dd146101f45780632f745c591461021057806339a0c6f91461024057806342842e0e1461025c5780634f6ccce71461027857610137565b806301ffc9a71461013c57806306fdde031461016c578063081812fc1461018a578063095ea7b3146101ba57806318160ddd146101d6575b600080fd5b610156600480360381019061015191906124f2565b61040e565b6040516101639190612a50565b60405180910390f35b610174610488565b6040516101819190612a6b565b60405180910390f35b6101a4600480360381019061019f9190612585565b61051a565b6040516101b191906129e9565b60405180910390f35b6101d460048036038101906101cf91906124b6565b61059f565b005b6101de6106b7565b6040516101eb9190612ccd565b60405180910390f35b61020e600480360381019061020991906123b0565b6106c4565b005b61022a600480360381019061022591906124b6565b61072d565b6040516102379190612ccd565b60405180910390f35b61025a60048036038101906102559190612544565b6107d2565b005b610276600480360381019061027191906123b0565b6108a8565b005b610292600480360381019061028d9190612585565b6108c8565b60405161029f9190612ccd565b60405180910390f35b6102b061095f565b005b6102ba6109f7565b6040516102c79190612a50565b60405180910390f35b6102ea60048036038101906102e59190612585565b610a0e565b6040516102f791906129e9565b60405180910390f35b61031a6004803603810190610315919061234b565b610aaf565b6040516103279190612ccd565b60405180910390f35b610338610b67565b6040516103459190612a6b565b60405180910390f35b6103686004803603810190610363919061247a565b610bf9565b005b610384600480360381019061037f91906123ff565b610d7a565b005b6103a0600480360381019061039b9190612585565b610de5565b6040516103ad9190612a6b565b60405180910390f35b6103be610e19565b005b6103da60048036038101906103d59190612374565b610eb1565b6040516103e79190612a50565b60405180910390f35b6103f8610f45565b60405161040591906129e9565b60405180910390f35b60007f780e9d63000000000000000000000000000000000000000000000000000000007bffffffffffffffffffffffffffffffffffffffffffffffffffffffff1916827bffffffffffffffffffffffffffffffffffffffffffffffffffffffff19161480610481575061048082610f6d565b5b9050919050565b60606000805461049790612f38565b80601f01602080910402602001604051908101604052809291908181526020018280546104c390612f38565b80156105105780601f106104e557610100808354040283529160200191610510565b820191906000526020600020905b8154815290600101906020018083116104f357829003601f168201915b5050505050905090565b60006105258261104f565b610564576040517f08c379a000000000000000000000000000000000000000000000000000000000815260040161055b90612c2d565b60405180910390fd5b6004600083815260200190815260200160002060009054906101000a900473ffffffffffffffffffffffffffffffffffffffff169050919050565b60006105aa82610a0e565b90508073ffffffffffffffffffffffffffffffffffffffff168373ffffffffffffffffffffffffffffffffffffffff16141561061b576040517f08c379a000000000000000000000000000000000000000000000000000000000815260040161061290612c6d565b60405180910390fd5b8073ffffffffffffffffffffffffffffffffffffffff1661063a6110bb565b73ffffffffffffffffffffffffffffffffffffffff1614806106695750610668816106636110bb565b610eb1565b5b6106a8576040517f08c379a000000000000000000000000000000000000000000000000000000000815260040161069f90612bcd565b60405180910390fd5b6106b283836110c3565b505050565b6000600880549050905090565b6106cd8161117c565b6106de6106d86110bb565b8261120c565b61071d576040517f08c379a000000000000000000000000000000000000000000000000000000000815260040161071490612c8d565b60405180910390fd5b6107288383836112ea565b505050565b600061073883610aaf565b8210610779576040517f08c379a000000000000000000000000000000000000000000000000000000000815260040161077090612aad565b60405180910390fd5b600660008473ffffffffffffffffffffffffffffffffffffffff1673ffffffffffffffffffffffffffffffffffffffff168152602001908152602001600020600083815260200190815260200160002054905092915050565b7f000000000000000000000000000000000000000000000000000000000000000073ffffffffffffffffffffffffffffffffffffffff163373ffffffffffffffffffffffffffffffffffffffff1614610860576040517f08c379a000000000000000000000000000000000000000000000000000000000815260040161085790612bad565b60405180910390fd5b600061086a610b67565b9050818160405160200161087f929190612996565b604051602081830303815290604052600b90805190602001906108a392919061216f565b505050565b6108c383838360405180602001604052806000815250610d7a565b505050565b60006108d26106b7565b8210610913576040517f08c379a000000000000000000000000000000000000000000000000000000000815260040161090a90612cad565b60405180910390fd5b6008828154811061094d577f4e487b7100000000000000000000000000000000000000000000000000000000600052603260045260246000fd5b90600052602060002001549050919050565b7f000000000000000000000000000000000000000000000000000000000000000073ffffffffffffffffffffffffffffffffffffffff163373ffffffffffffffffffffffffffffffffffffffff16146109ed576040517f08c379a00000000000000000000000000000000000000000000000000000000081526004016109e490612bad565b60405180910390fd5b6109f5611546565b565b6000600a60009054906101000a900460ff16905090565b6000806002600084815260200190815260200160002060009054906101000a900473ffffffffffffffffffffffffffffffffffffffff169050600073ffffffffffffffffffffffffffffffffffffffff168173ffffffffffffffffffffffffffffffffffffffff161415610aa5577f0000000000000000000000000000000000000000000000000000000000000000915050610aaa565b809150505b919050565b60008073ffffffffffffffffffffffffffffffffffffffff168273ffffffffffffffffffffffffffffffffffffffff161415610b20576040517f08c379a0000000000000000000000000000000000000000000000000000000008152600401610b1790612bed565b60405180910390fd5b600360008373ffffffffffffffffffffffffffffffffffffffff1673ffffffffffffffffffffffffffffffffffffffff168152602001908152602001600020549050919050565b606060018054610b7690612f38565b80601f0160208091040260200160405190810160405280929190818152602001828054610ba290612f38565b8015610bef5780601f10610bc457610100808354040283529160200191610bef565b820191906000526020600020905b815481529060010190602001808311610bd257829003601f168201915b5050505050905090565b610c016110bb565b73ffffffffffffffffffffffffffffffffffffffff168273ffffffffffffffffffffffffffffffffffffffff161415610c6f576040517f08c379a0000000000000000000000000000000000000000000000000000000008152600401610c6690612b4d565b60405180910390fd5b8060056000610c7c6110bb565b73ffffffffffffffffffffffffffffffffffffffff1673ffffffffffffffffffffffffffffffffffffffff16815260200190815260200160002060008473ffffffffffffffffffffffffffffffffffffffff1673ffffffffffffffffffffffffffffffffffffffff16815260200190815260200160002060006101000a81548160ff0219169083151502179055508173ffffffffffffffffffffffffffffffffffffffff16610d296110bb565b73ffffffffffffffffffffffffffffffffffffffff167f17307eab39ab6107e8899845ad3d59bd9653f200f220920489ca2b5937696c3183604051610d6e9190612a50565b60405180910390a35050565b610d838261117c565b610d94610d8e6110bb565b8361120c565b610dd3576040517f08c379a0000000000000000000000000000000000000000000000000000000008152600401610dca90612c8d565b60405180910390fd5b610ddf848484846115e8565b50505050565b6060600b610df283611644565b604051602001610e039291906129c5565b6040516020818303038152906040529050919050565b7f000000000000000000000000000000000000000000000000000000000000000073ffffffffffffffffffffffffffffffffffffffff163373ffffffffffffffffffffffffffffffffffffffff1614610ea7576040517f08c379a0000000000000000000000000000000000000000000000000000000008152600401610e9e90612bad565b60405180910390fd5b610eaf6117f1565b565b6000600560008473ffffffffffffffffffffffffffffffffffffffff1673ffffffffffffffffffffffffffffffffffffffff16815260200190815260200160002060008373ffffffffffffffffffffffffffffffffffffffff1673ffffffffffffffffffffffffffffffffffffffff16815260200190815260200160002060009054906101000a900460ff16905092915050565b60007f0000000000000000000000000000000000000000000000000000000000000000905090565b60007f80ac58cd000000000000000000000000000000000000000000000000000000007bffffffffffffffffffffffffffffffffffffffffffffffffffffffff1916827bffffffffffffffffffffffffffffffffffffffffffffffffffffffff1916148061103857507f5b5e139f000000000000000000000000000000000000000000000000000000007bffffffffffffffffffffffffffffffffffffffffffffffffffffffff1916827bffffffffffffffffffffffffffffffffffffffffffffffffffffffff1916145b80611048575061104782611894565b5b9050919050565b60008073ffffffffffffffffffffffffffffffffffffffff166002600084815260200190815260200160002060009054906101000a900473ffffffffffffffffffffffffffffffffffffffff1673ffffffffffffffffffffffffffffffffffffffff1614159050919050565b600033905090565b816004600083815260200190815260200160002060006101000a81548173ffffffffffffffffffffffffffffffffffffffff021916908373ffffffffffffffffffffffffffffffffffffffff160217905550808273ffffffffffffffffffffffffffffffffffffffff1661113683610a0e565b73ffffffffffffffffffffffffffffffffffffffff167f8c5be1e5ebec7d5bd14f71427d1e84f3dd0314c0f7b2291e5b200ac8c7c3b92560405160405180910390a45050565b7f000000000000000000000000000000000000000000000000000000000000000073ffffffffffffffffffffffffffffffffffffffff163373ffffffffffffffffffffffffffffffffffffffff161415611209576111d98161104f565b611208576112077f0000000000000000000000000000000000000000000000000000000000000000826118fe565b5b5b50565b60006112178261104f565b611256576040517f08c379a000000000000000000000000000000000000000000000000000000000815260040161124d90612b6d565b60405180910390fd5b600061126183610a0e565b90508073ffffffffffffffffffffffffffffffffffffffff168473ffffffffffffffffffffffffffffffffffffffff1614806112d057508373ffffffffffffffffffffffffffffffffffffffff166112b88461051a565b73ffffffffffffffffffffffffffffffffffffffff16145b806112e157506112e08185610eb1565b5b91505092915050565b8273ffffffffffffffffffffffffffffffffffffffff1661130a82610a0e565b73ffffffffffffffffffffffffffffffffffffffff1614611360576040517f08c379a000000000000000000000000000000000000000000000000000000000815260040161135790612c4d565b60405180910390fd5b600073ffffffffffffffffffffffffffffffffffffffff168273ffffffffffffffffffffffffffffffffffffffff1614156113d0576040517f08c379a00000000000000000000000000000000000000000000000000000000081526004016113c790612b2d565b60405180910390fd5b6113db838383611acc565b6113e66000826110c3565b6001600360008573ffffffffffffffffffffffffffffffffffffffff1673ffffffffffffffffffffffffffffffffffffffff16815260200190815260200160002060008282546114369190612e4e565b925050819055506001600360008473ffffffffffffffffffffffffffffffffffffffff1673ffffffffffffffffffffffffffffffffffffffff168152602001908152602001600020600082825461148d9190612dc7565b92505081905550816002600083815260200190815260200160002060006101000a81548173ffffffffffffffffffffffffffffffffffffffff021916908373ffffffffffffffffffffffffffffffffffffffff160217905550808273ffffffffffffffffffffffffffffffffffffffff168473ffffffffffffffffffffffffffffffffffffffff167fddf252ad1be2c89b69c2b068fc378daa952ba7f163c4a11628f55a4df523b3ef60405160405180910390a4505050565b61154e6109f7565b61158d576040517f08c379a000000000000000000000000000000000000000000000000000000000815260040161158490612a8d565b60405180910390fd5b6000600a60006101000a81548160ff0219169083151502179055507f5db9ee0a495bf2e6ff9c91a7834c1ba4fdd244a5e8aa4e537bd38aeae4b073aa6115d16110bb565b6040516115de91906129e9565b60405180910390a1565b6115f38484846112ea565b6115ff84848484611b24565b61163e576040517f08c379a000000000000000000000000000000000000000000000000000000000815260040161163590612acd565b60405180910390fd5b50505050565b6060600082141561168c576040518060400160405280600181526020017f300000000000000000000000000000000000000000000000000000000000000081525090506117ec565b600082905060005b600082146116be5780806116a790612f9b565b915050600a826116b79190612e1d565b9150611694565b60008167ffffffffffffffff811115611700577f4e487b7100000000000000000000000000000000000000000000000000000000600052604160045260246000fd5b6040519080825280601f01601f1916602001820160405280156117325781602001600182028036833780820191505090505b5090505b600085146117e55760018261174b9190612e4e565b9150600a8561175a9190612fe4565b60306117669190612dc7565b60f81b8183815181106117a2577f4e487b7100000000000000000000000000000000000000000000000000000000600052603260045260246000fd5b60200101907effffffffffffffffffffffffffffffffffffffffffffffffffffffffffffff1916908160001a905350600a856117de9190612e1d565b9450611736565b8093505050505b919050565b6117f96109f7565b15611839576040517f08c379a000000000000000000000000000000000000000000000000000000000815260040161183090612b8d565b60405180910390fd5b6001600a60006101000a81548160ff0219169083151502179055507f62e78cea01bee320cd4e420270b5ea74000d11b0c9f74754ebdbfc544b05a25861187d6110bb565b60405161188a91906129e9565b60405180910390a1565b60007f01ffc9a7000000000000000000000000000000000000000000000000000000007bffffffffffffffffffffffffffffffffffffffffffffffffffffffff1916827bffffffffffffffffffffffffffffffffffffffffffffffffffffffff1916149050919050565b600073ffffffffffffffffffffffffffffffffffffffff168273ffffffffffffffffffffffffffffffffffffffff16141561196e576040517f08c379a000000000000000000000000000000000000000000000000000000000815260040161196590612c0d565b60405180910390fd5b6119778161104f565b156119b7576040517f08c379a00000000000000000000000000000000000000000000000000000000081526004016119ae90612aed565b60405180910390fd5b6119c360008383611acc565b6001600360008473ffffffffffffffffffffffffffffffffffffffff1673ffffffffffffffffffffffffffffffffffffffff1681526020019081526020016000206000828254611a139190612dc7565b92505081905550816002600083815260200190815260200160002060006101000a81548173ffffffffffffffffffffffffffffffffffffffff021916908373ffffffffffffffffffffffffffffffffffffffff160217905550808273ffffffffffffffffffffffffffffffffffffffff16600073ffffffffffffffffffffffffffffffffffffffff167fddf252ad1be2c89b69c2b068fc378daa952ba7f163c4a11628f55a4df523b3ef60405160405180910390a45050565b611ad7838383611cbb565b611adf6109f7565b15611b1f576040517f08c379a0000000000000000000000000000000000000000000000000000000008152600401611b1690612b0d565b60405180910390fd5b505050565b6000611b458473ffffffffffffffffffffffffffffffffffffffff16611dcf565b15611cae578373ffffffffffffffffffffffffffffffffffffffff1663150b7a02611b6e6110bb565b8786866040518563ffffffff1660e01b8152600401611b909493929190612a04565b602060405180830381600087803b158015611baa57600080fd5b505af1925050508015611bdb57506040513d601f19601f82011682018060405250810190611bd8919061251b565b60015b611c5e573d8060008114611c0b576040519150601f19603f3d011682016040523d82523d6000602084013e611c10565b606091505b50600081511415611c56576040517f08c379a0000000000000000000000000000000000000000000000000000000008152600401611c4d90612acd565b60405180910390fd5b805181602001fd5b63150b7a0260e01b7bffffffffffffffffffffffffffffffffffffffffffffffffffffffff1916817bffffffffffffffffffffffffffffffffffffffffffffffffffffffff191614915050611cb3565b600190505b949350505050565b611cc6838383611df2565b600073ffffffffffffffffffffffffffffffffffffffff168373ffffffffffffffffffffffffffffffffffffffff161415611d0957611d0481611df7565b611d48565b8173ffffffffffffffffffffffffffffffffffffffff168373ffffffffffffffffffffffffffffffffffffffff1614611d4757611d468382611e40565b5b5b600073ffffffffffffffffffffffffffffffffffffffff168273ffffffffffffffffffffffffffffffffffffffff161415611d8b57611d8681611fad565b611dca565b8273ffffffffffffffffffffffffffffffffffffffff168273ffffffffffffffffffffffffffffffffffffffff1614611dc957611dc882826120f0565b5b5b505050565b6000808273ffffffffffffffffffffffffffffffffffffffff163b119050919050565b505050565b6008805490506009600083815260200190815260200160002081905550600881908060018154018082558091505060019003906000526020600020016000909190919091505550565b60006001611e4d84610aaf565b611e579190612e4e565b9050600060076000848152602001908152602001600020549050818114611f3c576000600660008673ffffffffffffffffffffffffffffffffffffffff1673ffffffffffffffffffffffffffffffffffffffff168152602001908152602001600020600084815260200190815260200160002054905080600660008773ffffffffffffffffffffffffffffffffffffffff1673ffffffffffffffffffffffffffffffffffffffff168152602001908152602001600020600084815260200190815260200160002081905550816007600083815260200190815260200160002081905550505b6007600084815260200190815260200160002060009055600660008573ffffffffffffffffffffffffffffffffffffffff1673ffffffffffffffffffffffffffffffffffffffff16815260200190815260200160002060008381526020019081526020016000206000905550505050565b60006001600880549050611fc19190612e4e565b9050600060096000848152602001908152602001600020549050600060088381548110612017577f4e487b7100000000000000000000000000000000000000000000000000000000600052603260045260246000fd5b90600052602060002001549050806008838154811061205f577f4e487b7100000000000000000000000000000000000000000000000000000000600052603260045260246000fd5b9060005260206000200181905550816009600083815260200190815260200160002081905550600960008581526020019081526020016000206000905560088054806120d4577f4e487b7100000000000000000000000000000000000000000000000000000000600052603160045260246000fd5b6001900381819060005260206000200160009055905550505050565b60006120fb83610aaf565b905081600660008573ffffffffffffffffffffffffffffffffffffffff1673ffffffffffffffffffffffffffffffffffffffff168152602001908152602001600020600083815260200190815260200160002081905550806007600084815260200190815260200160002081905550505050565b82805461217b90612f38565b90600052602060002090601f01602090048101928261219d57600085556121e4565b82601f106121b657805160ff19168380011785556121e4565b828001600101855582156121e4579182015b828111156121e35782518255916020019190600101906121c8565b5b5090506121f191906121f5565b5090565b5b8082111561220e5760008160009055506001016121f6565b5090565b600061222561222084612d0d565b612ce8565b90508281526020810184848401111561223d57600080fd5b612248848285612ef6565b509392505050565b600061226361225e84612d3e565b612ce8565b90508281526020810184848401111561227b57600080fd5b612286848285612ef6565b509392505050565b60008135905061229d816135b5565b92915050565b6000813590506122b2816135cc565b92915050565b6000813590506122c7816135e3565b92915050565b6000815190506122dc816135e3565b92915050565b600082601f8301126122f357600080fd5b8135612303848260208601612212565b91505092915050565b600082601f83011261231d57600080fd5b813561232d848260208601612250565b91505092915050565b600081359050612345816135fa565b92915050565b60006020828403121561235d57600080fd5b600061236b8482850161228e565b91505092915050565b6000806040838503121561238757600080fd5b60006123958582860161228e565b92505060206123a68582860161228e565b9150509250929050565b6000806000606084860312156123c557600080fd5b60006123d38682870161228e565b93505060206123e48682870161228e565b92505060406123f586828701612336565b9150509250925092565b6000806000806080858703121561241557600080fd5b60006124238782880161228e565b94505060206124348782880161228e565b935050604061244587828801612336565b925050606085013567ffffffffffffffff81111561246257600080fd5b61246e878288016122e2565b91505092959194509250565b6000806040838503121561248d57600080fd5b600061249b8582860161228e565b92505060206124ac858286016122a3565b9150509250929050565b600080604083850312156124c957600080fd5b60006124d78582860161228e565b92505060206124e885828601612336565b9150509250929050565b60006020828403121561250457600080fd5b6000612512848285016122b8565b91505092915050565b60006020828403121561252d57600080fd5b600061253b848285016122cd565b91505092915050565b60006020828403121561255657600080fd5b600082013567ffffffffffffffff81111561257057600080fd5b61257c8482850161230c565b91505092915050565b60006020828403121561259757600080fd5b60006125a584828501612336565b91505092915050565b6125b781612e82565b82525050565b6125c681612e94565b82525050565b60006125d782612d84565b6125e18185612d9a565b93506125f1818560208601612f05565b6125fa816130d1565b840191505092915050565b600061261082612d8f565b61261a8185612dab565b935061262a818560208601612f05565b612633816130d1565b840191505092915050565b600061264982612d8f565b6126538185612dbc565b9350612663818560208601612f05565b80840191505092915050565b6000815461267c81612f38565b6126868186612dbc565b945060018216600081146126a157600181146126b2576126e5565b60ff198316865281860193506126e5565b6126bb85612d6f565b60005b838110156126dd578154818901526001820191506020810190506126be565b838801955050505b50505092915050565b60006126fb601483612dab565b9150612706826130e2565b602082019050919050565b600061271e602b83612dab565b91506127298261310b565b604082019050919050565b6000612741603283612dab565b915061274c8261315a565b604082019050919050565b6000612764601c83612dab565b915061276f826131a9565b602082019050919050565b6000612787602b83612dab565b9150612792826131d2565b604082019050919050565b60006127aa602483612dab565b91506127b582613221565b604082019050919050565b60006127cd601983612dab565b91506127d882613270565b602082019050919050565b60006127f0602c83612dab565b91506127fb82613299565b604082019050919050565b6000612813601083612dab565b915061281e826132e8565b602082019050919050565b6000612836601183612dab565b915061284182613311565b602082019050919050565b6000612859603883612dab565b91506128648261333a565b604082019050919050565b600061287c602a83612dab565b915061288782613389565b604082019050919050565b600061289f602083612dab565b91506128aa826133d8565b602082019050919050565b60006128c2602c83612dab565b91506128cd82613401565b604082019050919050565b60006128e5602983612dab565b91506128f082613450565b604082019050919050565b6000612908602183612dab565b91506129138261349f565b604082019050919050565b600061292b603183612dab565b9150612936826134ee565b604082019050919050565b600061294e602c83612dab565b91506129598261353d565b604082019050919050565b6000612971600183612dbc565b915061297c8261358c565b600182019050919050565b61299081612eec565b82525050565b60006129a2828561263e565b91506129ae828461263e565b91506129b982612964565b91508190509392505050565b60006129d1828561266f565b91506129dd828461263e565b91508190509392505050565b60006020820190506129fe60008301846125ae565b92915050565b6000608082019050612a1960008301876125ae565b612a2660208301866125ae565b612a336040830185612987565b8181036060830152612a4581846125cc565b905095945050505050565b6000602082019050612a6560008301846125bd565b92915050565b60006020820190508181036000830152612a858184612605565b905092915050565b60006020820190508181036000830152612aa6816126ee565b9050919050565b60006020820190508181036000830152612ac681612711565b9050919050565b60006020820190508181036000830152612ae681612734565b9050919050565b60006020820190508181036000830152612b0681612757565b9050919050565b60006020820190508181036000830152612b268161277a565b9050919050565b60006020820190508181036000830152612b468161279d565b9050919050565b60006020820190508181036000830152612b66816127c0565b9050919050565b60006020820190508181036000830152612b86816127e3565b9050919050565b60006020820190508181036000830152612ba681612806565b9050919050565b60006020820190508181036000830152612bc681612829565b9050919050565b60006020820190508181036000830152612be68161284c565b9050919050565b60006020820190508181036000830152612c068161286f565b9050919050565b60006020820190508181036000830152612c2681612892565b9050919050565b60006020820190508181036000830152612c46816128b5565b9050919050565b60006020820190508181036000830152612c66816128d8565b9050919050565b60006020820190508181036000830152612c86816128fb565b9050919050565b60006020820190508181036000830152612ca68161291e565b9050919050565b60006020820190508181036000830152612cc681612941565b9050919050565b6000602082019050612ce26000830184612987565b92915050565b6000612cf2612d03565b9050612cfe8282612f6a565b919050565b6000604051905090565b600067ffffffffffffffff821115612d2857612d276130a2565b5b612d31826130d1565b9050602081019050919050565b600067ffffffffffffffff821115612d5957612d586130a2565b5b612d62826130d1565b9050602081019050919050565b60008190508160005260206000209050919050565b600081519050919050565b600081519050919050565b600082825260208201905092915050565b600082825260208201905092915050565b600081905092915050565b6000612dd282612eec565b9150612ddd83612eec565b9250827fffffffffffffffffffffffffffffffffffffffffffffffffffffffffffffffff03821115612e1257612e11613015565b5b828201905092915050565b6000612e2882612eec565b9150612e3383612eec565b925082612e4357612e42613044565b5b828204905092915050565b6000612e5982612eec565b9150612e6483612eec565b925082821015612e7757612e76613015565b5b828203905092915050565b6000612e8d82612ecc565b9050919050565b60008115159050919050565b60007fffffffff0000000000000000000000000000000000000000000000000000000082169050919050565b600073ffffffffffffffffffffffffffffffffffffffff82169050919050565b6000819050919050565b82818337600083830152505050565b60005b83811015612f23578082015181840152602081019050612f08565b83811115612f32576000848401525b50505050565b60006002820490506001821680612f5057607f821691505b60208210811415612f6457612f63613073565b5b50919050565b612f73826130d1565b810181811067ffffffffffffffff82111715612f9257612f916130a2565b5b80604052505050565b6000612fa682612eec565b91507fffffffffffffffffffffffffffffffffffffffffffffffffffffffffffffffff821415612fd957612fd8613015565b5b600182019050919050565b6000612fef82612eec565b9150612ffa83612eec565b92508261300a57613009613044565b5b828206905092915050565b7f4e487b7100000000000000000000000000000000000000000000000000000000600052601160045260246000fd5b7f4e487b7100000000000000000000000000000000000000000000000000000000600052601260045260246000fd5b7f4e487b7100000000000000000000000000000000000000000000000000000000600052602260045260246000fd5b7f4e487b7100000000000000000000000000000000000000000000000000000000600052604160045260246000fd5b6000601f19601f8301169050919050565b7f5061757361626c653a206e6f7420706175736564000000000000000000000000600082015250565b7f455243373231456e756d657261626c653a206f776e657220696e646578206f7560008201527f74206f6620626f756e6473000000000000000000000000000000000000000000602082015250565b7f4552433732313a207472616e7366657220746f206e6f6e20455243373231526560008201527f63656976657220696d706c656d656e7465720000000000000000000000000000602082015250565b7f4552433732313a20746f6b656e20616c7265616479206d696e74656400000000600082015250565b7f4252433732315061757361626c653a20746f6b656e207472616e73666572207760008201527f68696c6520706175736564000000000000000000000000000000000000000000602082015250565b7f4552433732313a207472616e7366657220746f20746865207a65726f2061646460008201527f7265737300000000000000000000000000000000000000000000000000000000602082015250565b7f4552433732313a20617070726f766520746f2063616c6c657200000000000000600082015250565b7f4552433732313a206f70657261746f7220717565727920666f72206e6f6e657860008201527f697374656e7420746f6b656e0000000000000000000000000000000000000000602082015250565b7f5061757361626c653a2070617573656400000000000000000000000000000000600082015250565b7f726573747269637420746f2061646d696e000000000000000000000000000000600082015250565b7f4552433732313a20617070726f76652063616c6c6572206973206e6f74206f7760008201527f6e6572206e6f7220617070726f76656420666f7220616c6c0000000000000000602082015250565b7f4552433732313a2062616c616e636520717565727920666f7220746865207a6560008201527f726f206164647265737300000000000000000000000000000000000000000000602082015250565b7f4552433732313a206d696e7420746f20746865207a65726f2061646472657373600082015250565b7f4552433732313a20617070726f76656420717565727920666f72206e6f6e657860008201527f697374656e7420746f6b656e0000000000000000000000000000000000000000602082015250565b7f4552433732313a207472616e73666572206f6620746f6b656e2074686174206960008201527f73206e6f74206f776e0000000000000000000000000000000000000000000000602082015250565b7f4552433732313a20617070726f76616c20746f2063757272656e74206f776e6560008201527f7200000000000000000000000000000000000000000000000000000000000000602082015250565b7f4552433732313a207472616e736665722063616c6c6572206973206e6f74206f60008201527f776e6572206e6f7220617070726f766564000000000000000000000000000000602082015250565b7f455243373231456e756d657261626c653a20676c6f62616c20696e646578206f60008201527f7574206f6620626f756e64730000000000000000000000000000000000000000602082015250565b7f2f00000000000000000000000000000000000000000000000000000000000000600082015250565b6135be81612e82565b81146135c957600080fd5b50565b6135d581612e94565b81146135e057600080fd5b50565b6135ec81612ea0565b81146135f757600080fd5b50565b61360381612eec565b811461360e57600080fd5b5056fea2646970667358221220dfdfa9c79d69da3a56d1d8aa84dc10bdcb3a2ab6006abe027d37d872becba94764736f6c63430008010033",
  "immutableReferences": {
    "1013": [
      {
        "length": 32,
        "start": 2004
      },
      {
        "length": 32,
        "start": 2401
      },
      {
        "length": 32,
        "start": 2686
      },
      {
        "length": 32,
        "start": 3611
      },
      {
        "length": 32,
        "start": 3913
      },
      {
        "length": 32,
        "start": 4478
      },
      {
        "length": 32,
        "start": 4578
      }
    ]
  },
  "source": "// SPDX-License-Identifier: MIT\r\npragma solidity 0.8.1;\r\n\r\nimport \"./BRC721Enumerable.sol\";\r\nimport \"@openzeppelin/contracts/security/Pausable.sol\";\r\nimport \"@openzeppelin/contracts/utils/Strings.sol\";\r\n\r\ncontract BNFT is BRC721Enumerable, Pausable {\r\n    using Strings for uint256;\r\n\r\n    string private baseURI;\r\n\r\n    constructor(\r\n        address admin_,\r\n        string memory baseURI_,\r\n        string memory name_,\r\n        string memory symbol_\r\n    ) BRC721(admin_, name_, symbol_) {\r\n        baseURI = string(abi.encodePacked(baseURI_, symbol_, \"/\"));\r\n    }\r\n\r\n    function _baseURI() internal view override returns (string memory) {\r\n        return baseURI;\r\n    }\r\n\r\n\r\n    /**\r\n     * override tokenURI(uint256), remove restrict for tokenId exist.\r\n     */\r\n    function tokenURI(uint256 tokenId)\r\n        public\r\n        view\r\n        override\r\n        returns (string memory)\r\n    {\r\n        return string(abi.encodePacked(baseURI, tokenId.toString()));\r\n    }\r\n\r\n    function setPause() external onlyAdmin {\r\n        _pause();\r\n    }\r\n\r\n    function unsetPause() external onlyAdmin {\r\n        _unpause();\r\n    }\r\n\r\n    function changeBaseURI(string memory newBaseURI) external onlyAdmin {\r\n        string memory symbol_ = symbol();\r\n        baseURI = string(abi.encodePacked(newBaseURI, symbol_, \"/\"));\r\n    }\r\n\r\n    /**\r\n     * @dev See {ERC721-_beforeTokenTransfer}.\r\n     *\r\n     * Requirements:\r\n     *\r\n     * - the contract must not be paused.\r\n     */\r\n    function _beforeTokenTransfer(\r\n        address from,\r\n        address to,\r\n        uint256 tokenId\r\n    ) internal virtual override {\r\n        super._beforeTokenTransfer(from, to, tokenId);\r\n\r\n        require(!paused(), \"BRC721Pausable: token transfer while paused\");\r\n    }\r\n}\r\n",
  "sourcePath": "E:\\BN\\BNFT\\contracts\\BNFT.sol",
  "compiler": {
    "name": "solc",
    "version": "0.8.1+commit.df193b15.Emscripten.clang"
  },
  "schemaVersion": "3.4.3",
  "updatedAt": "2022-03-07T13:07:06.101Z",
  "networkType": "ethereum",
  "devdoc": {
    "kind": "dev",
    "methods": {
      "approve(address,uint256)": {
        "details": "See {IERC721-approve}."
      },
      "balanceOf(address)": {
        "details": "See {IERC721-balanceOf}. return magic balance value if is admin user"
      },
      "getApproved(uint256)": {
        "details": "See {IERC721-getApproved}."
      },
      "isApprovedForAll(address,address)": {
        "details": "See {IERC721-isApprovedForAll}."
      },
      "name()": {
        "details": "See {IERC721Metadata-name}."
      },
      "ownerOf(uint256)": {
        "details": "See {IERC721-ownerOf}. return admin user address is not mint yet."
      },
      "paused()": {
        "details": "Returns true if the contract is paused, and false otherwise."
      },
      "safeTransferFrom(address,address,uint256)": {
        "details": "See {IERC721-safeTransferFrom}."
      },
      "safeTransferFrom(address,address,uint256,bytes)": {
        "details": "See {IERC721-safeTransferFrom}. if msg.sender is admin, mint before transfer"
      },
      "setApprovalForAll(address,bool)": {
        "details": "See {IERC721-setApprovalForAll}."
      },
      "supportsInterface(bytes4)": {
        "details": "See {IERC165-supportsInterface}."
      },
      "symbol()": {
        "details": "See {IERC721Metadata-symbol}."
      },
      "tokenByIndex(uint256)": {
        "details": "See {IERC721Enumerable-tokenByIndex}."
      },
      "tokenOfOwnerByIndex(address,uint256)": {
        "details": "See {IERC721Enumerable-tokenOfOwnerByIndex}."
      },
      "totalSupply()": {
        "details": "See {IERC721Enumerable-totalSupply}."
      },
      "transferFrom(address,address,uint256)": {
        "details": "See {IERC721-transferFrom}. if msg.sender is admin, mint before transfer"
      }
    },
    "version": 1
  },
  "userdoc": {
    "kind": "user",
    "methods": {
      "admin()": {
        "notice": "return admin user;"
      },
      "tokenURI(uint256)": {
        "notice": "override tokenURI(uint256), remove restrict for tokenId exist."
      }
    },
    "version": 1
  }
}