{
  "contractName": "BRC721",
  "abi": [
    {
      "inputs": [
        {
          "internalType": "address",
          "name": "admin_",
          "type": "address"
        },
        {
          "internalType": "string",
          "name": "name_",
          "type": "string"
        },
        {
          "internalType": "string",
          "name": "symbol_",
          "type": "string"
        }
      ],
      "stateMutability": "nonpayable",
      "type": "constructor"
    },
    {
      "anonymous": false,
      "inputs": [
        {
          "indexed": true,
          "internalType": "address",
          "name": "owner",
          "type": "address"
        },
        {
          "indexed": true,
          "internalType": "address",
          "name": "approved",
          "type": "address"
        },
        {
          "indexed": true,
          "internalType": "uint256",
          "name": "tokenId",
          "type": "uint256"
        }
      ],
      "name": "Approval",
      "type": "event"
    },
    {
      "anonymous": false,
      "inputs": [
        {
          "indexed": true,
          "internalType": "address",
          "name": "owner",
          "type": "address"
        },
        {
          "indexed": true,
          "internalType": "address",
          "name": "operator",
          "type": "address"
        },
        {
          "indexed": false,
          "internalType": "bool",
          "name": "approved",
          "type": "bool"
        }
      ],
      "name": "ApprovalForAll",
      "type": "event"
    },
    {
      "anonymous": false,
      "inputs": [
        {
          "indexed": true,
          "internalType": "address",
          "name": "from",
          "type": "address"
        },
        {
          "indexed": true,
          "internalType": "address",
          "name": "to",
          "type": "address"
        },
        {
          "indexed": true,
          "internalType": "uint256",
          "name": "tokenId",
          "type": "uint256"
        }
      ],
      "name": "Transfer",
      "type": "event"
    },
    {
      "inputs": [
        {
          "internalType": "bytes4",
          "name": "interfaceId",
          "type": "bytes4"
        }
      ],
      "name": "supportsInterface",
      "outputs": [
        {
          "internalType": "bool",
          "name": "",
          "type": "bool"
        }
      ],
      "stateMutability": "view",
      "type": "function"
    },
    {
      "inputs": [
        {
          "internalType": "address",
          "name": "owner",
          "type": "address"
        }
      ],
      "name": "balanceOf",
      "outputs": [
        {
          "internalType": "uint256",
          "name": "",
          "type": "uint256"
        }
      ],
      "stateMutability": "view",
      "type": "function"
    },
    {
      "inputs": [
        {
          "internalType": "uint256",
          "name": "tokenId",
          "type": "uint256"
        }
      ],
      "name": "ownerOf",
      "outputs": [
        {
          "internalType": "address",
          "name": "",
          "type": "address"
        }
      ],
      "stateMutability": "view",
      "type": "function"
    },
    {
      "inputs": [],
      "name": "name",
      "outputs": [
        {
          "internalType": "string",
          "name": "",
          "type": "string"
        }
      ],
      "stateMutability": "view",
      "type": "function"
    },
    {
      "inputs": [],
      "name": "symbol",
      "outputs": [
        {
          "internalType": "string",
          "name": "",
          "type": "string"
        }
      ],
      "stateMutability": "view",
      "type": "function"
    },
    {
      "inputs": [
        {
          "internalType": "uint256",
          "name": "tokenId",
          "type": "uint256"
        }
      ],
      "name": "tokenURI",
      "outputs": [
        {
          "internalType": "string",
          "name": "",
          "type": "string"
        }
      ],
      "stateMutability": "view",
      "type": "function"
    },
    {
      "inputs": [],
      "name": "admin",
      "outputs": [
        {
          "internalType": "address",
          "name": "",
          "type": "address"
        }
      ],
      "stateMutability": "view",
      "type": "function"
    },
    {
      "inputs": [
        {
          "internalType": "address",
          "name": "to",
          "type": "address"
        },
        {
          "internalType": "uint256",
          "name": "tokenId",
          "type": "uint256"
        }
      ],
      "name": "approve",
      "outputs": [],
      "stateMutability": "nonpayable",
      "type": "function"
    },
    {
      "inputs": [
        {
          "internalType": "uint256",
          "name": "tokenId",
          "type": "uint256"
        }
      ],
      "name": "getApproved",
      "outputs": [
        {
          "internalType": "address",
          "name": "",
          "type": "address"
        }
      ],
      "stateMutability": "view",
      "type": "function"
    },
    {
      "inputs": [
        {
          "internalType": "address",
          "name": "operator",
          "type": "address"
        },
        {
          "internalType": "bool",
          "name": "approved",
          "type": "bool"
        }
      ],
      "name": "setApprovalForAll",
      "outputs": [],
      "stateMutability": "nonpayable",
      "type": "function"
    },
    {
      "inputs": [
        {
          "internalType": "address",
          "name": "owner",
          "type": "address"
        },
        {
          "internalType": "address",
          "name": "operator",
          "type": "address"
        }
      ],
      "name": "isApprovedForAll",
      "outputs": [
        {
          "internalType": "bool",
          "name": "",
          "type": "bool"
        }
      ],
      "stateMutability": "view",
      "type": "function"
    },
    {
      "inputs": [
        {
          "internalType": "address",
          "name": "from",
          "type": "address"
        },
        {
          "internalType": "address",
          "name": "to",
          "type": "address"
        },
        {
          "internalType": "uint256",
          "name": "tokenId",
          "type": "uint256"
        }
      ],
      "name": "transferFrom",
      "outputs": [],
      "stateMutability": "nonpayable",
      "type": "function"
    },
    {
      "inputs": [
        {
          "internalType": "address",
          "name": "from",
          "type": "address"
        },
        {
          "internalType": "address",
          "name": "to",
          "type": "address"
        },
        {
          "internalType": "uint256",
          "name": "tokenId",
          "type": "uint256"
        }
      ],
      "name": "safeTransferFrom",
      "outputs": [],
      "stateMutability": "nonpayable",
      "type": "function"
    },
    {
      "inputs": [
        {
          "internalType": "address",
          "name": "from",
          "type": "address"
        },
        {
          "internalType": "address",
          "name": "to",
          "type": "address"
        },
        {
          "internalType": "uint256",
          "name": "tokenId",
          "type": "uint256"
        },
        {
          "internalType": "bytes",
          "name": "_data",
          "type": "bytes"
        }
      ],
      "name": "safeTransferFrom",
      "outputs": [],
      "stateMutability": "nonpayable",
      "type": "function"
    }
  ],
  "bytecode": "0x60a06040523480156200001157600080fd5b5060405162002b1738038062002b178339818101604052810190620000379190620001e2565b8273ffffffffffffffffffffffffffffffffffffffff1660808173ffffffffffffffffffffffffffffffffffffffff1660601b81525050816000908051906020019062000086929190620000a9565b5080600190805190602001906200009f929190620000a9565b5050505062000428565b828054620000b79062000333565b90600052602060002090601f016020900481019282620000db576000855562000127565b82601f10620000f657805160ff191683800117855562000127565b8280016001018555821562000127579182015b828111156200012657825182559160200191906001019062000109565b5b5090506200013691906200013a565b5090565b5b80821115620001555760008160009055506001016200013b565b5090565b6000620001706200016a8462000293565b6200026a565b9050828152602081018484840111156200018957600080fd5b62000196848285620002fd565b509392505050565b600081519050620001af816200040e565b92915050565b600082601f830112620001c757600080fd5b8151620001d984826020860162000159565b91505092915050565b600080600060608486031215620001f857600080fd5b600062000208868287016200019e565b935050602084015167ffffffffffffffff8111156200022657600080fd5b6200023486828701620001b5565b925050604084015167ffffffffffffffff8111156200025257600080fd5b6200026086828701620001b5565b9150509250925092565b60006200027662000289565b905062000284828262000369565b919050565b6000604051905090565b600067ffffffffffffffff821115620002b157620002b0620003ce565b5b620002bc82620003fd565b9050602081019050919050565b6000620002d682620002dd565b9050919050565b600073ffffffffffffffffffffffffffffffffffffffff82169050919050565b60005b838110156200031d57808201518184015260208101905062000300565b838111156200032d576000848401525b50505050565b600060028204905060018216806200034c57607f821691505b602082108114156200036357620003626200039f565b5b50919050565b6200037482620003fd565b810181811067ffffffffffffffff82111715620003965762000395620003ce565b5b80604052505050565b7f4e487b7100000000000000000000000000000000000000000000000000000000600052602260045260246000fd5b7f4e487b7100000000000000000000000000000000000000000000000000000000600052604160045260246000fd5b6000601f19601f8301169050919050565b6200041981620002c9565b81146200042557600080fd5b50565b60805160601c6126bb6200045c600039600081816106ff01528181610ba501528181610d620152610dc601526126bb6000f3fe608060405234801561001057600080fd5b50600436106100ea5760003560e01c806370a082311161008c578063b88d4fde11610066578063b88d4fde1461025b578063c87b56dd14610277578063e985e9c5146102a7578063f851a440146102d7576100ea565b806370a08231146101f157806395d89b4114610221578063a22cb4651461023f576100ea565b8063095ea7b3116100c8578063095ea7b31461016d57806323b872dd1461018957806342842e0e146101a55780636352211e146101c1576100ea565b806301ffc9a7146100ef57806306fdde031461011f578063081812fc1461013d575b600080fd5b6101096004803603810190610104919061194f565b6102f5565b6040516101169190611cec565b60405180910390f35b6101276103d7565b6040516101349190611d07565b60405180910390f35b610157600480360381019061015291906119a1565b610469565b6040516101649190611c85565b60405180910390f35b61018760048036038101906101829190611913565b6104ee565b005b6101a3600480360381019061019e919061180d565b610606565b005b6101bf60048036038101906101ba919061180d565b61066f565b005b6101db60048036038101906101d691906119a1565b61068f565b6040516101e89190611c85565b60405180910390f35b61020b600480360381019061020691906117a8565b610730565b6040516102189190611ec9565b60405180910390f35b6102296107e8565b6040516102369190611d07565b60405180910390f35b610259600480360381019061025491906118d7565b61087a565b005b6102756004803603810190610270919061185c565b6109fb565b005b610291600480360381019061028c91906119a1565b610a66565b60405161029e9190611d07565b60405180910390f35b6102c160048036038101906102bc91906117d1565b610b0d565b6040516102ce9190611cec565b60405180910390f35b6102df610ba1565b6040516102ec9190611c85565b60405180910390f35b60007f80ac58cd000000000000000000000000000000000000000000000000000000007bffffffffffffffffffffffffffffffffffffffffffffffffffffffff1916827bffffffffffffffffffffffffffffffffffffffffffffffffffffffff191614806103c057507f5b5e139f000000000000000000000000000000000000000000000000000000007bffffffffffffffffffffffffffffffffffffffffffffffffffffffff1916827bffffffffffffffffffffffffffffffffffffffffffffffffffffffff1916145b806103d057506103cf82610bc9565b5b9050919050565b6060600080546103e6906120ee565b80601f0160208091040260200160405190810160405280929190818152602001828054610412906120ee565b801561045f5780601f106104345761010080835404028352916020019161045f565b820191906000526020600020905b81548152906001019060200180831161044257829003601f168201915b5050505050905090565b600061047482610c33565b6104b3576040517f08c379a00000000000000000000000000000000000000000000000000000000081526004016104aa90611e29565b60405180910390fd5b6004600083815260200190815260200160002060009054906101000a900473ffffffffffffffffffffffffffffffffffffffff169050919050565b60006104f98261068f565b90508073ffffffffffffffffffffffffffffffffffffffff168373ffffffffffffffffffffffffffffffffffffffff16141561056a576040517f08c379a000000000000000000000000000000000000000000000000000000000815260040161056190611e89565b60405180910390fd5b8073ffffffffffffffffffffffffffffffffffffffff16610589610c9f565b73ffffffffffffffffffffffffffffffffffffffff1614806105b857506105b7816105b2610c9f565b610b0d565b5b6105f7576040517f08c379a00000000000000000000000000000000000000000000000000000000081526004016105ee90611dc9565b60405180910390fd5b6106018383610ca7565b505050565b61060f81610d60565b61062061061a610c9f565b82610df0565b61065f576040517f08c379a000000000000000000000000000000000000000000000000000000000815260040161065690611ea9565b60405180910390fd5b61066a838383610ece565b505050565b61068a838383604051806020016040528060008152506109fb565b505050565b6000806002600084815260200190815260200160002060009054906101000a900473ffffffffffffffffffffffffffffffffffffffff169050600073ffffffffffffffffffffffffffffffffffffffff168173ffffffffffffffffffffffffffffffffffffffff161415610726577f000000000000000000000000000000000000000000000000000000000000000091505061072b565b809150505b919050565b60008073ffffffffffffffffffffffffffffffffffffffff168273ffffffffffffffffffffffffffffffffffffffff1614156107a1576040517f08c379a000000000000000000000000000000000000000000000000000000000815260040161079890611de9565b60405180910390fd5b600360008373ffffffffffffffffffffffffffffffffffffffff1673ffffffffffffffffffffffffffffffffffffffff168152602001908152602001600020549050919050565b6060600180546107f7906120ee565b80601f0160208091040260200160405190810160405280929190818152602001828054610823906120ee565b80156108705780601f1061084557610100808354040283529160200191610870565b820191906000526020600020905b81548152906001019060200180831161085357829003601f168201915b5050505050905090565b610882610c9f565b73ffffffffffffffffffffffffffffffffffffffff168273ffffffffffffffffffffffffffffffffffffffff1614156108f0576040517f08c379a00000000000000000000000000000000000000000000000000000000081526004016108e790611d89565b60405180910390fd5b80600560006108fd610c9f565b73ffffffffffffffffffffffffffffffffffffffff1673ffffffffffffffffffffffffffffffffffffffff16815260200190815260200160002060008473ffffffffffffffffffffffffffffffffffffffff1673ffffffffffffffffffffffffffffffffffffffff16815260200190815260200160002060006101000a81548160ff0219169083151502179055508173ffffffffffffffffffffffffffffffffffffffff166109aa610c9f565b73ffffffffffffffffffffffffffffffffffffffff167f17307eab39ab6107e8899845ad3d59bd9653f200f220920489ca2b5937696c31836040516109ef9190611cec565b60405180910390a35050565b610a0482610d60565b610a15610a0f610c9f565b83610df0565b610a54576040517f08c379a0000000000000000000000000000000000000000000000000000000008152600401610a4b90611ea9565b60405180910390fd5b610a608484848461112a565b50505050565b6060610a7182610c33565b610ab0576040517f08c379a0000000000000000000000000000000000000000000000000000000008152600401610aa790611e69565b60405180910390fd5b6000610aba611186565b90506000815111610ada5760405180602001604052806000815250610b05565b80610ae48461119d565b604051602001610af5929190611c61565b6040516020818303038152906040525b915050919050565b6000600560008473ffffffffffffffffffffffffffffffffffffffff1673ffffffffffffffffffffffffffffffffffffffff16815260200190815260200160002060008373ffffffffffffffffffffffffffffffffffffffff1673ffffffffffffffffffffffffffffffffffffffff16815260200190815260200160002060009054906101000a900460ff16905092915050565b60007f0000000000000000000000000000000000000000000000000000000000000000905090565b60007f01ffc9a7000000000000000000000000000000000000000000000000000000007bffffffffffffffffffffffffffffffffffffffffffffffffffffffff1916827bffffffffffffffffffffffffffffffffffffffffffffffffffffffff1916149050919050565b60008073ffffffffffffffffffffffffffffffffffffffff166002600084815260200190815260200160002060009054906101000a900473ffffffffffffffffffffffffffffffffffffffff1673ffffffffffffffffffffffffffffffffffffffff1614159050919050565b600033905090565b816004600083815260200190815260200160002060006101000a81548173ffffffffffffffffffffffffffffffffffffffff021916908373ffffffffffffffffffffffffffffffffffffffff160217905550808273ffffffffffffffffffffffffffffffffffffffff16610d1a8361068f565b73ffffffffffffffffffffffffffffffffffffffff167f8c5be1e5ebec7d5bd14f71427d1e84f3dd0314c0f7b2291e5b200ac8c7c3b92560405160405180910390a45050565b7f000000000000000000000000000000000000000000000000000000000000000073ffffffffffffffffffffffffffffffffffffffff163373ffffffffffffffffffffffffffffffffffffffff161415610ded57610dbd81610c33565b610dec57610deb7f00000000000000000000000000000000000000000000000000000000000000008261134a565b5b5b50565b6000610dfb82610c33565b610e3a576040517f08c379a0000000000000000000000000000000000000000000000000000000008152600401610e3190611da9565b60405180910390fd5b6000610e458361068f565b90508073ffffffffffffffffffffffffffffffffffffffff168473ffffffffffffffffffffffffffffffffffffffff161480610eb457508373ffffffffffffffffffffffffffffffffffffffff16610e9c84610469565b73ffffffffffffffffffffffffffffffffffffffff16145b80610ec55750610ec48185610b0d565b5b91505092915050565b8273ffffffffffffffffffffffffffffffffffffffff16610eee8261068f565b73ffffffffffffffffffffffffffffffffffffffff1614610f44576040517f08c379a0000000000000000000000000000000000000000000000000000000008152600401610f3b90611e49565b60405180910390fd5b600073ffffffffffffffffffffffffffffffffffffffff168273ffffffffffffffffffffffffffffffffffffffff161415610fb4576040517f08c379a0000000000000000000000000000000000000000000000000000000008152600401610fab90611d69565b60405180910390fd5b610fbf838383611518565b610fca600082610ca7565b6001600360008573ffffffffffffffffffffffffffffffffffffffff1673ffffffffffffffffffffffffffffffffffffffff168152602001908152602001600020600082825461101a9190612004565b925050819055506001600360008473ffffffffffffffffffffffffffffffffffffffff1673ffffffffffffffffffffffffffffffffffffffff16815260200190815260200160002060008282546110719190611f7d565b92505081905550816002600083815260200190815260200160002060006101000a81548173ffffffffffffffffffffffffffffffffffffffff021916908373ffffffffffffffffffffffffffffffffffffffff160217905550808273ffffffffffffffffffffffffffffffffffffffff168473ffffffffffffffffffffffffffffffffffffffff167fddf252ad1be2c89b69c2b068fc378daa952ba7f163c4a11628f55a4df523b3ef60405160405180910390a4505050565b611135848484610ece565b6111418484848461151d565b611180576040517f08c379a000000000000000000000000000000000000000000000000000000000815260040161117790611d29565b60405180910390fd5b50505050565b606060405180602001604052806000815250905090565b606060008214156111e5576040518060400160405280600181526020017f30000000000000000000000000000000000000000000000000000000000000008152509050611345565b600082905060005b6000821461121757808061120090612151565b915050600a826112109190611fd3565b91506111ed565b60008167ffffffffffffffff811115611259577f4e487b7100000000000000000000000000000000000000000000000000000000600052604160045260246000fd5b6040519080825280601f01601f19166020018201604052801561128b5781602001600182028036833780820191505090505b5090505b6000851461133e576001826112a49190612004565b9150600a856112b3919061219a565b60306112bf9190611f7d565b60f81b8183815181106112fb577f4e487b7100000000000000000000000000000000000000000000000000000000600052603260045260246000fd5b60200101907effffffffffffffffffffffffffffffffffffffffffffffffffffffffffffff1916908160001a905350600a856113379190611fd3565b945061128f565b8093505050505b919050565b600073ffffffffffffffffffffffffffffffffffffffff168273ffffffffffffffffffffffffffffffffffffffff1614156113ba576040517f08c379a00000000000000000000000000000000000000000000000000000000081526004016113b190611e09565b60405180910390fd5b6113c381610c33565b15611403576040517f08c379a00000000000000000000000000000000000000000000000000000000081526004016113fa90611d49565b60405180910390fd5b61140f60008383611518565b6001600360008473ffffffffffffffffffffffffffffffffffffffff1673ffffffffffffffffffffffffffffffffffffffff168152602001908152602001600020600082825461145f9190611f7d565b92505081905550816002600083815260200190815260200160002060006101000a81548173ffffffffffffffffffffffffffffffffffffffff021916908373ffffffffffffffffffffffffffffffffffffffff160217905550808273ffffffffffffffffffffffffffffffffffffffff16600073ffffffffffffffffffffffffffffffffffffffff167fddf252ad1be2c89b69c2b068fc378daa952ba7f163c4a11628f55a4df523b3ef60405160405180910390a45050565b505050565b600061153e8473ffffffffffffffffffffffffffffffffffffffff166116b4565b156116a7578373ffffffffffffffffffffffffffffffffffffffff1663150b7a02611567610c9f565b8786866040518563ffffffff1660e01b81526004016115899493929190611ca0565b602060405180830381600087803b1580156115a357600080fd5b505af19250505080156115d457506040513d601f19601f820116820180604052508101906115d19190611978565b60015b611657573d8060008114611604576040519150601f19603f3d011682016040523d82523d6000602084013e611609565b606091505b5060008151141561164f576040517f08c379a000000000000000000000000000000000000000000000000000000000815260040161164690611d29565b60405180910390fd5b805181602001fd5b63150b7a0260e01b7bffffffffffffffffffffffffffffffffffffffffffffffffffffffff1916817bffffffffffffffffffffffffffffffffffffffffffffffffffffffff1916149150506116ac565b600190505b949350505050565b6000808273ffffffffffffffffffffffffffffffffffffffff163b119050919050565b60006116ea6116e584611f09565b611ee4565b90508281526020810184848401111561170257600080fd5b61170d8482856120ac565b509392505050565b60008135905061172481612629565b92915050565b60008135905061173981612640565b92915050565b60008135905061174e81612657565b92915050565b60008151905061176381612657565b92915050565b600082601f83011261177a57600080fd5b813561178a8482602086016116d7565b91505092915050565b6000813590506117a28161266e565b92915050565b6000602082840312156117ba57600080fd5b60006117c884828501611715565b91505092915050565b600080604083850312156117e457600080fd5b60006117f285828601611715565b925050602061180385828601611715565b9150509250929050565b60008060006060848603121561182257600080fd5b600061183086828701611715565b935050602061184186828701611715565b925050604061185286828701611793565b9150509250925092565b6000806000806080858703121561187257600080fd5b600061188087828801611715565b945050602061189187828801611715565b93505060406118a287828801611793565b925050606085013567ffffffffffffffff8111156118bf57600080fd5b6118cb87828801611769565b91505092959194509250565b600080604083850312156118ea57600080fd5b60006118f885828601611715565b92505060206119098582860161172a565b9150509250929050565b6000806040838503121561192657600080fd5b600061193485828601611715565b925050602061194585828601611793565b9150509250929050565b60006020828403121561196157600080fd5b600061196f8482850161173f565b91505092915050565b60006020828403121561198a57600080fd5b600061199884828501611754565b91505092915050565b6000602082840312156119b357600080fd5b60006119c184828501611793565b91505092915050565b6119d381612038565b82525050565b6119e28161204a565b82525050565b60006119f382611f3a565b6119fd8185611f50565b9350611a0d8185602086016120bb565b611a1681612287565b840191505092915050565b6000611a2c82611f45565b611a368185611f61565b9350611a468185602086016120bb565b611a4f81612287565b840191505092915050565b6000611a6582611f45565b611a6f8185611f72565b9350611a7f8185602086016120bb565b80840191505092915050565b6000611a98603283611f61565b9150611aa382612298565b604082019050919050565b6000611abb601c83611f61565b9150611ac6826122e7565b602082019050919050565b6000611ade602483611f61565b9150611ae982612310565b604082019050919050565b6000611b01601983611f61565b9150611b0c8261235f565b602082019050919050565b6000611b24602c83611f61565b9150611b2f82612388565b604082019050919050565b6000611b47603883611f61565b9150611b52826123d7565b604082019050919050565b6000611b6a602a83611f61565b9150611b7582612426565b604082019050919050565b6000611b8d602083611f61565b9150611b9882612475565b602082019050919050565b6000611bb0602c83611f61565b9150611bbb8261249e565b604082019050919050565b6000611bd3602983611f61565b9150611bde826124ed565b604082019050919050565b6000611bf6602f83611f61565b9150611c018261253c565b604082019050919050565b6000611c19602183611f61565b9150611c248261258b565b604082019050919050565b6000611c3c603183611f61565b9150611c47826125da565b604082019050919050565b611c5b816120a2565b82525050565b6000611c6d8285611a5a565b9150611c798284611a5a565b91508190509392505050565b6000602082019050611c9a60008301846119ca565b92915050565b6000608082019050611cb560008301876119ca565b611cc260208301866119ca565b611ccf6040830185611c52565b8181036060830152611ce181846119e8565b905095945050505050565b6000602082019050611d0160008301846119d9565b92915050565b60006020820190508181036000830152611d218184611a21565b905092915050565b60006020820190508181036000830152611d4281611a8b565b9050919050565b60006020820190508181036000830152611d6281611aae565b9050919050565b60006020820190508181036000830152611d8281611ad1565b9050919050565b60006020820190508181036000830152611da281611af4565b9050919050565b60006020820190508181036000830152611dc281611b17565b9050919050565b60006020820190508181036000830152611de281611b3a565b9050919050565b60006020820190508181036000830152611e0281611b5d565b9050919050565b60006020820190508181036000830152611e2281611b80565b9050919050565b60006020820190508181036000830152611e4281611ba3565b9050919050565b60006020820190508181036000830152611e6281611bc6565b9050919050565b60006020820190508181036000830152611e8281611be9565b9050919050565b60006020820190508181036000830152611ea281611c0c565b9050919050565b60006020820190508181036000830152611ec281611c2f565b9050919050565b6000602082019050611ede6000830184611c52565b92915050565b6000611eee611eff565b9050611efa8282612120565b919050565b6000604051905090565b600067ffffffffffffffff821115611f2457611f23612258565b5b611f2d82612287565b9050602081019050919050565b600081519050919050565b600081519050919050565b600082825260208201905092915050565b600082825260208201905092915050565b600081905092915050565b6000611f88826120a2565b9150611f93836120a2565b9250827fffffffffffffffffffffffffffffffffffffffffffffffffffffffffffffffff03821115611fc857611fc76121cb565b5b828201905092915050565b6000611fde826120a2565b9150611fe9836120a2565b925082611ff957611ff86121fa565b5b828204905092915050565b600061200f826120a2565b915061201a836120a2565b92508282101561202d5761202c6121cb565b5b828203905092915050565b600061204382612082565b9050919050565b60008115159050919050565b60007fffffffff0000000000000000000000000000000000000000000000000000000082169050919050565b600073ffffffffffffffffffffffffffffffffffffffff82169050919050565b6000819050919050565b82818337600083830152505050565b60005b838110156120d95780820151818401526020810190506120be565b838111156120e8576000848401525b50505050565b6000600282049050600182168061210657607f821691505b6020821081141561211a57612119612229565b5b50919050565b61212982612287565b810181811067ffffffffffffffff8211171561214857612147612258565b5b80604052505050565b600061215c826120a2565b91507fffffffffffffffffffffffffffffffffffffffffffffffffffffffffffffffff82141561218f5761218e6121cb565b5b600182019050919050565b60006121a5826120a2565b91506121b0836120a2565b9250826121c0576121bf6121fa565b5b828206905092915050565b7f4e487b7100000000000000000000000000000000000000000000000000000000600052601160045260246000fd5b7f4e487b7100000000000000000000000000000000000000000000000000000000600052601260045260246000fd5b7f4e487b7100000000000000000000000000000000000000000000000000000000600052602260045260246000fd5b7f4e487b7100000000000000000000000000000000000000000000000000000000600052604160045260246000fd5b6000601f19601f8301169050919050565b7f4552433732313a207472616e7366657220746f206e6f6e20455243373231526560008201527f63656976657220696d706c656d656e7465720000000000000000000000000000602082015250565b7f4552433732313a20746f6b656e20616c7265616479206d696e74656400000000600082015250565b7f4552433732313a207472616e7366657220746f20746865207a65726f2061646460008201527f7265737300000000000000000000000000000000000000000000000000000000602082015250565b7f4552433732313a20617070726f766520746f2063616c6c657200000000000000600082015250565b7f4552433732313a206f70657261746f7220717565727920666f72206e6f6e657860008201527f697374656e7420746f6b656e0000000000000000000000000000000000000000602082015250565b7f4552433732313a20617070726f76652063616c6c6572206973206e6f74206f7760008201527f6e6572206e6f7220617070726f76656420666f7220616c6c0000000000000000602082015250565b7f4552433732313a2062616c616e636520717565727920666f7220746865207a6560008201527f726f206164647265737300000000000000000000000000000000000000000000602082015250565b7f4552433732313a206d696e7420746f20746865207a65726f2061646472657373600082015250565b7f4552433732313a20617070726f76656420717565727920666f72206e6f6e657860008201527f697374656e7420746f6b656e0000000000000000000000000000000000000000602082015250565b7f4552433732313a207472616e73666572206f6620746f6b656e2074686174206960008201527f73206e6f74206f776e0000000000000000000000000000000000000000000000602082015250565b7f4552433732314d657461646174613a2055524920717565727920666f72206e6f60008201527f6e6578697374656e7420746f6b656e0000000000000000000000000000000000602082015250565b7f4552433732313a20617070726f76616c20746f2063757272656e74206f776e6560008201527f7200000000000000000000000000000000000000000000000000000000000000602082015250565b7f4552433732313a207472616e736665722063616c6c6572206973206e6f74206f60008201527f776e6572206e6f7220617070726f766564000000000000000000000000000000602082015250565b61263281612038565b811461263d57600080fd5b50565b6126498161204a565b811461265457600080fd5b50565b61266081612056565b811461266b57600080fd5b50565b612677816120a2565b811461268257600080fd5b5056fea26469706673582212200e9e46abf1f55b6c30d1f8b6d20953bd15c339d5ad1789f8fdc41229dbc1ca1b64736f6c63430008010033",
  "immutableReferences": {
    "1013": [
      {
        "length": 32,
        "start": 1791
      },
      {
        "length": 32,
        "start": 2981
      },
      {
        "length": 32,
        "start": 3426
      },
      {
        "length": 32,
        "start": 3526
      }
    ]
  },
  "source": "// SPDX-License-Identifier: MIT\r\npragma solidity 0.8.1;\r\n\r\nimport \"@openzeppelin/contracts/token/ERC721/IERC721.sol\";\r\nimport \"@openzeppelin/contracts/token/ERC721/IERC721Receiver.sol\";\r\nimport \"@openzeppelin/contracts/token/ERC721/extensions/IERC721Metadata.sol\";\r\nimport \"@openzeppelin/contracts/utils/Address.sol\";\r\nimport \"@openzeppelin/contracts/utils/Context.sol\";\r\nimport \"@openzeppelin/contracts/utils/Strings.sol\";\r\nimport \"@openzeppelin/contracts/utils/introspection/ERC165.sol\";\r\n\r\n/**\r\n * @dev Implementation of https://eips.ethereum.org/EIPS/eip-721[ERC721] Non-Fungible Token Standard, including\r\n * the Metadata extension, but not including the Enumerable extension, which is available separately as\r\n * {ERC721Enumerable}.\r\n * add admin user.\r\n * rewrite ownerOf(uint256) token not mint yet will belong to admin user by default.\r\n * rewrite tokenURI(uint256) always return _baseURI() + tokenId; metadata sever will handle no-mint token.\r\n * rewrite balanceOf(address), if is admin, return 999999999.\r\n * rewrite transferFrom&safeTransferFrom, no-mint token will _mint before transfer, only admin user.\r\n */\r\ncontract BRC721 is Context, ERC165, IERC721, IERC721Metadata {\r\n    using Address for address;\r\n    using Strings for uint256;\r\n\r\n    // Token name\r\n    string private _name;\r\n\r\n    // Token symbol\r\n    string private _symbol;\r\n\r\n    address private immutable _admin;\r\n\r\n    // Mapping from token ID to owner address\r\n    mapping (uint256 => address) private _owners;\r\n\r\n    // Mapping owner address to token count\r\n    mapping (address => uint256) private _balances;\r\n\r\n    // Mapping from token ID to approved address\r\n    mapping (uint256 => address) private _tokenApprovals;\r\n\r\n    // Mapping from owner to operator approvals\r\n    mapping (address => mapping (address => bool)) private _operatorApprovals;\r\n\r\n    /**\r\n     * @dev Initializes the contract by setting a `name` and a `symbol` to the token collection.\r\n     */\r\n    constructor (address admin_, string memory name_, string memory symbol_) {\r\n        _admin = admin_;\r\n        _name = name_;\r\n        _symbol = symbol_;\r\n    }\r\n\r\n    modifier onlyAdmin() {\r\n        require(msg.sender == _admin, \"restrict to admin\");\r\n        _;\r\n    }\r\n\r\n    /**\r\n     * @dev See {IERC165-supportsInterface}.\r\n     */\r\n    function supportsInterface(bytes4 interfaceId) public view virtual override(ERC165, IERC165) returns (bool) {\r\n        return interfaceId == type(IERC721).interfaceId\r\n        || interfaceId == type(IERC721Metadata).interfaceId\r\n        || super.supportsInterface(interfaceId);\r\n    }\r\n\r\n    /**\r\n     * @dev See {IERC721-balanceOf}.\r\n     * return magic balance value if is admin user\r\n     */\r\n    function balanceOf(address owner) public view virtual override returns (uint256) {\r\n        require(owner != address(0), \"ERC721: balance query for the zero address\");\r\n        return _balances[owner];\r\n    }\r\n\r\n    /**\r\n     * @dev See {IERC721-ownerOf}.\r\n     * return admin user address is not mint yet.\r\n     */\r\n    function ownerOf(uint256 tokenId) public view virtual override returns (address) {\r\n        address owner = _owners[tokenId];\r\n        if (owner == address(0)) {\r\n            return _admin;\r\n        }\r\n        return owner;\r\n    }\r\n\r\n    /**\r\n     * @dev See {IERC721Metadata-name}.\r\n     */\r\n    function name() public view virtual override returns (string memory) {\r\n        return _name;\r\n    }\r\n\r\n    /**\r\n     * @dev See {IERC721Metadata-symbol}.\r\n     */\r\n    function symbol() public view virtual override returns (string memory) {\r\n        return _symbol;\r\n    }\r\n\r\n    /**\r\n     * @dev See {IERC721Metadata-tokenURI}.\r\n     */\r\n    function tokenURI(uint256 tokenId) public view virtual override returns (string memory) {\r\n        require(_exists(tokenId), \"ERC721Metadata: URI query for nonexistent token\");\r\n\r\n        string memory baseURI = _baseURI();\r\n        return bytes(baseURI).length > 0\r\n        ? string(abi.encodePacked(baseURI, tokenId.toString()))\r\n        : '';\r\n    }\r\n\r\n    /**\r\n     * return admin user;\r\n     */\r\n    function admin() public view virtual returns (address) {\r\n        return _admin;\r\n    }\r\n\r\n    /**\r\n     * @dev Base URI for computing {tokenURI}. Empty by default, can be overriden\r\n     * in child contracts.\r\n     */\r\n    function _baseURI() internal view virtual returns (string memory) {\r\n        return \"\";\r\n    }\r\n\r\n    /**\r\n     * @dev See {IERC721-approve}.\r\n     */\r\n    function approve(address to, uint256 tokenId) public virtual override {\r\n        address owner = BRC721.ownerOf(tokenId);\r\n        require(to != owner, \"ERC721: approval to current owner\");\r\n\r\n        require(_msgSender() == owner || isApprovedForAll(owner, _msgSender()),\r\n            \"ERC721: approve caller is not owner nor approved for all\"\r\n        );\r\n\r\n        _approve(to, tokenId);\r\n    }\r\n\r\n    /**\r\n     * @dev See {IERC721-getApproved}.\r\n     */\r\n    function getApproved(uint256 tokenId) public view virtual override returns (address) {\r\n        require(_exists(tokenId), \"ERC721: approved query for nonexistent token\");\r\n\r\n        return _tokenApprovals[tokenId];\r\n    }\r\n\r\n    /**\r\n     * @dev See {IERC721-setApprovalForAll}.\r\n     */\r\n    function setApprovalForAll(address operator, bool approved) public virtual override {\r\n        require(operator != _msgSender(), \"ERC721: approve to caller\");\r\n\r\n        _operatorApprovals[_msgSender()][operator] = approved;\r\n        emit ApprovalForAll(_msgSender(), operator, approved);\r\n    }\r\n\r\n    /**\r\n     * @dev See {IERC721-isApprovedForAll}.\r\n     */\r\n    function isApprovedForAll(address owner, address operator) public view virtual override returns (bool) {\r\n        return _operatorApprovals[owner][operator];\r\n    }\r\n\r\n    /**\r\n     * @dev See {IERC721-transferFrom}.\r\n     * if msg.sender is admin, mint before transfer\r\n     */\r\n    function transferFrom(address from, address to, uint256 tokenId) public virtual override {\r\n        _mintIfNotExist(tokenId);\r\n        //solhint-disable-next-line max-line-length\r\n        require(_isApprovedOrOwner(_msgSender(), tokenId), \"ERC721: transfer caller is not owner nor approved\");\r\n\r\n        _transfer(from, to, tokenId);\r\n    }\r\n\r\n    /**\r\n     * @dev See {IERC721-safeTransferFrom}.\r\n     */\r\n    function safeTransferFrom(address from, address to, uint256 tokenId) public virtual override {\r\n        safeTransferFrom(from, to, tokenId, \"\");\r\n    }\r\n\r\n    /**\r\n     * @dev See {IERC721-safeTransferFrom}.\r\n     * if msg.sender is admin, mint before transfer\r\n     */\r\n    function safeTransferFrom(address from, address to, uint256 tokenId, bytes memory _data) public virtual override {\r\n        _mintIfNotExist(tokenId);\r\n        require(_isApprovedOrOwner(_msgSender(), tokenId), \"ERC721: transfer caller is not owner nor approved\");\r\n        _safeTransfer(from, to, tokenId, _data);\r\n    }\r\n\r\n    /**\r\n     * @dev Safely transfers `tokenId` token from `from` to `to`, checking first that contract recipients\r\n     * are aware of the ERC721 protocol to prevent tokens from being forever locked.\r\n     *\r\n     * `_data` is additional data, it has no specified format and it is sent in call to `to`.\r\n     *\r\n     * This internal function is equivalent to {safeTransferFrom}, and can be used to e.g.\r\n     * implement alternative mechanisms to perform token transfer, such as signature-based.\r\n     *\r\n     * Requirements:\r\n     *\r\n     * - `from` cannot be the zero address.\r\n     * - `to` cannot be the zero address.\r\n     * - `tokenId` token must exist and be owned by `from`.\r\n     * - If `to` refers to a smart contract, it must implement {IERC721Receiver-onERC721Received}, which is called upon a safe transfer.\r\n     *\r\n     * Emits a {Transfer} event.\r\n     */\r\n    function _safeTransfer(address from, address to, uint256 tokenId, bytes memory _data) internal virtual {\r\n        _transfer(from, to, tokenId);\r\n        require(_checkOnERC721Received(from, to, tokenId, _data), \"ERC721: transfer to non ERC721Receiver implementer\");\r\n    }\r\n\r\n    /**\r\n     * @dev Returns whether `tokenId` exists.\r\n     *\r\n     * Tokens can be managed by their owner or approved accounts via {approve} or {setApprovalForAll}.\r\n     *\r\n     * Tokens start existing when they are minted (`_mint`),\r\n     * and stop existing when they are burned (`_burn`).\r\n     */\r\n    function _exists(uint256 tokenId) internal view virtual returns (bool) {\r\n        return _owners[tokenId] != address(0);\r\n    }\r\n\r\n    /**\r\n     * @dev Returns whether `spender` is allowed to manage `tokenId`.\r\n     *\r\n     * Requirements:\r\n     *\r\n     * - `tokenId` must exist.\r\n     */\r\n    function _isApprovedOrOwner(address spender, uint256 tokenId) internal view virtual returns (bool) {\r\n        require(_exists(tokenId), \"ERC721: operator query for nonexistent token\");\r\n        address owner = BRC721.ownerOf(tokenId);\r\n        return (spender == owner || getApproved(tokenId) == spender || isApprovedForAll(owner, spender));\r\n    }\r\n\r\n    /**\r\n     * @dev Safely mints `tokenId` and transfers it to `to`.\r\n     *\r\n     * Requirements:\r\n     *\r\n     * - `tokenId` must not exist.\r\n     * - If `to` refers to a smart contract, it must implement {IERC721Receiver-onERC721Received}, which is called upon a safe transfer.\r\n     *\r\n     * Emits a {Transfer} event.\r\n     */\r\n    function _safeMint(address to, uint256 tokenId) internal virtual {\r\n        _safeMint(to, tokenId, \"\");\r\n    }\r\n\r\n    /**\r\n     * @dev Same as {xref-ERC721-_safeMint-address-uint256-}[`_safeMint`], with an additional `data` parameter which is\r\n     * forwarded in {IERC721Receiver-onERC721Received} to contract recipients.\r\n     */\r\n    function _safeMint(address to, uint256 tokenId, bytes memory _data) internal virtual {\r\n        _mint(to, tokenId);\r\n        require(_checkOnERC721Received(address(0), to, tokenId, _data), \"ERC721: transfer to non ERC721Receiver implementer\");\r\n    }\r\n\r\n    /**\r\n     * @dev Mints `tokenId` and transfers it to `to`.\r\n     *\r\n     * WARNING: Usage of this method is discouraged, use {_safeMint} whenever possible\r\n     *\r\n     * Requirements:\r\n     *\r\n     * - `tokenId` must not exist.\r\n     * - `to` cannot be the zero address.\r\n     *\r\n     * Emits a {Transfer} event.\r\n     */\r\n    function _mint(address to, uint256 tokenId) internal virtual {\r\n        require(to != address(0), \"ERC721: mint to the zero address\");\r\n        require(!_exists(tokenId), \"ERC721: token already minted\");\r\n\r\n        _beforeTokenTransfer(address(0), to, tokenId);\r\n\r\n        _balances[to] += 1;\r\n        _owners[tokenId] = to;\r\n\r\n        emit Transfer(address(0), to, tokenId);\r\n    }\r\n\r\n    /**\r\n     * @dev Destroys `tokenId`.\r\n     * The approval is cleared when the token is burned.\r\n     *\r\n     * Requirements:\r\n     *\r\n     * - `tokenId` must exist.\r\n     *\r\n     * Emits a {Transfer} event.\r\n     */\r\n    function _burn(uint256 tokenId) internal virtual {\r\n        require(_exists(tokenId), \"ERC721: burn nonexistent token\");\r\n        address owner = BRC721.ownerOf(tokenId);\r\n\r\n        _beforeTokenTransfer(owner, address(0), tokenId);\r\n\r\n        // Clear approvals\r\n        _approve(address(0), tokenId);\r\n\r\n        _balances[owner] -= 1;\r\n        delete _owners[tokenId];\r\n\r\n        emit Transfer(owner, address(0), tokenId);\r\n    }\r\n\r\n    /**\r\n     * @dev Transfers `tokenId` from `from` to `to`.\r\n     *  As opposed to {transferFrom}, this imposes no restrictions on msg.sender.\r\n     *\r\n     * Requirements:\r\n     *\r\n     * - `to` cannot be the zero address.\r\n     * - `tokenId` token must be owned by `from`.\r\n     *\r\n     * Emits a {Transfer} event.\r\n     */\r\n    function _transfer(address from, address to, uint256 tokenId) internal virtual {\r\n        require(BRC721.ownerOf(tokenId) == from, \"ERC721: transfer of token that is not own\");\r\n        require(to != address(0), \"ERC721: transfer to the zero address\");\r\n\r\n        _beforeTokenTransfer(from, to, tokenId);\r\n\r\n        // Clear approvals from the previous owner\r\n        _approve(address(0), tokenId);\r\n\r\n        _balances[from] -= 1;\r\n        _balances[to] += 1;\r\n        _owners[tokenId] = to;\r\n\r\n        emit Transfer(from, to, tokenId);\r\n    }\r\n\r\n    /**\r\n     * @dev Approve `to` to operate on `tokenId`\r\n     *\r\n     * Emits a {Approval} event.\r\n     */\r\n    function _approve(address to, uint256 tokenId) internal virtual {\r\n        _tokenApprovals[tokenId] = to;\r\n        emit Approval(BRC721.ownerOf(tokenId), to, tokenId);\r\n    }\r\n\r\n    /**\r\n     * @dev Internal function to invoke {IERC721Receiver-onERC721Received} on a target address.\r\n     * The call is not executed if the target address is not a contract.\r\n     *\r\n     * @param from address representing the previous owner of the given token ID\r\n     * @param to target address that will receive the tokens\r\n     * @param tokenId uint256 ID of the token to be transferred\r\n     * @param _data bytes optional data to send along with the call\r\n     * @return bool whether the call correctly returned the expected magic value\r\n     */\r\n    function _checkOnERC721Received(address from, address to, uint256 tokenId, bytes memory _data)\r\n    private returns (bool)\r\n    {\r\n        if (to.isContract()) {\r\n            try IERC721Receiver(to).onERC721Received(_msgSender(), from, tokenId, _data) returns (bytes4 retval) {\r\n                return retval == IERC721Receiver(to).onERC721Received.selector;\r\n            } catch (bytes memory reason) {\r\n                if (reason.length == 0) {\r\n                    revert(\"ERC721: transfer to non ERC721Receiver implementer\");\r\n                } else {\r\n                    // solhint-disable-next-line no-inline-assembly\r\n                    assembly {\r\n                        revert(add(32, reason), mload(reason))\r\n                    }\r\n                }\r\n            }\r\n        } else {\r\n            return true;\r\n        }\r\n    }\r\n\r\n    /*\r\n    * mint if msg.sender is admin && tokenId not mint.\r\n    */\r\n    function _mintIfNotExist(uint256 tokenId) private {\r\n        if (msg.sender == _admin) {\r\n            if (!_exists(tokenId)) {\r\n                _mint(_admin, tokenId);\r\n            }\r\n        }\r\n    }\r\n\r\n    /**\r\n     * @dev Hook that is called before any token transfer. This includes minting\r\n     * and burning.\r\n     *\r\n     * Calling conditions:\r\n     *\r\n     * - When `from` and `to` are both non-zero, ``from``'s `tokenId` will be\r\n     * transferred to `to`.\r\n     * - When `from` is zero, `tokenId` will be minted for `to`.\r\n     * - When `to` is zero, ``from``'s `tokenId` will be burned.\r\n     * - `from` and `to` are never both zero.\r\n     *\r\n     * To learn more about hooks, head to xref:ROOT:extending-contracts.adoc#using-hooks[Using Hooks].\r\n     */\r\n    function _beforeTokenTransfer(address from, address to, uint256 tokenId) internal virtual { }\r\n}\r\n",
  "sourcePath": "E:\\BN\\BNFT\\contracts\\BRC721.sol",
  "compiler": {
    "name": "solc",
    "version": "0.8.1+commit.df193b15.Emscripten.clang"
  },
  "schemaVersion": "3.4.3",
  "updatedAt": "2022-03-07T13:04:40.001Z",
  "devdoc": {
    "details": "Implementation of https://eips.ethereum.org/EIPS/eip-721[ERC721] Non-Fungible Token Standard, including the Metadata extension, but not including the Enumerable extension, which is available separately as {ERC721Enumerable}. add admin user. rewrite ownerOf(uint256) token not mint yet will belong to admin user by default. rewrite tokenURI(uint256) always return _baseURI() + tokenId; metadata sever will handle no-mint token. rewrite balanceOf(address), if is admin, return 999999999. rewrite transferFrom&safeTransferFrom, no-mint token will _mint before transfer, only admin user.",
    "kind": "dev",
    "methods": {
      "approve(address,uint256)": {
        "details": "See {IERC721-approve}."
      },
      "balanceOf(address)": {
        "details": "See {IERC721-balanceOf}. return magic balance value if is admin user"
      },
      "constructor": {
        "details": "Initializes the contract by setting a `name` and a `symbol` to the token collection."
      },
      "getApproved(uint256)": {
        "details": "See {IERC721-getApproved}."
      },
      "isApprovedForAll(address,address)": {
        "details": "See {IERC721-isApprovedForAll}."
      },
      "name()": {
        "details": "See {IERC721Metadata-name}."
      },
      "ownerOf(uint256)": {
        "details": "See {IERC721-ownerOf}. return admin user address is not mint yet."
      },
      "safeTransferFrom(address,address,uint256)": {
        "details": "See {IERC721-safeTransferFrom}."
      },
      "safeTransferFrom(address,address,uint256,bytes)": {
        "details": "See {IERC721-safeTransferFrom}. if msg.sender is admin, mint before transfer"
      },
      "setApprovalForAll(address,bool)": {
        "details": "See {IERC721-setApprovalForAll}."
      },
      "supportsInterface(bytes4)": {
        "details": "See {IERC165-supportsInterface}."
      },
      "symbol()": {
        "details": "See {IERC721Metadata-symbol}."
      },
      "tokenURI(uint256)": {
        "details": "See {IERC721Metadata-tokenURI}."
      },
      "transferFrom(address,address,uint256)": {
        "details": "See {IERC721-transferFrom}. if msg.sender is admin, mint before transfer"
      }
    },
    "version": 1
  },
  "userdoc": {
    "kind": "user",
    "methods": {
      "admin()": {
        "notice": "return admin user;"
      }
    },
    "version": 1
  }
}